{
  "contractName": "NFT",
  "abi": [
    {
      "inputs": [
        {
          "internalType": "address",
          "name": "enderecoContratoMarketplace",
          "type": "address"
        }
      ],
      "stateMutability": "nonpayable",
      "type": "constructor"
    },
    {
      "anonymous": false,
      "inputs": [
        {
          "indexed": true,
          "internalType": "address",
          "name": "owner",
          "type": "address"
        },
        {
          "indexed": true,
          "internalType": "address",
          "name": "approved",
          "type": "address"
        },
        {
          "indexed": true,
          "internalType": "uint256",
          "name": "tokenId",
          "type": "uint256"
        }
      ],
      "name": "Approval",
      "type": "event"
    },
    {
      "anonymous": false,
      "inputs": [
        {
          "indexed": true,
          "internalType": "address",
          "name": "owner",
          "type": "address"
        },
        {
          "indexed": true,
          "internalType": "address",
          "name": "operator",
          "type": "address"
        },
        {
          "indexed": false,
          "internalType": "bool",
          "name": "approved",
          "type": "bool"
        }
      ],
      "name": "ApprovalForAll",
      "type": "event"
    },
    {
      "anonymous": false,
      "inputs": [
        {
          "indexed": false,
          "internalType": "uint256",
          "name": "_fromTokenId",
          "type": "uint256"
        },
        {
          "indexed": false,
          "internalType": "uint256",
          "name": "_toTokenId",
          "type": "uint256"
        }
      ],
      "name": "BatchMetadataUpdate",
      "type": "event"
    },
    {
      "anonymous": false,
      "inputs": [
        {
          "indexed": false,
          "internalType": "uint256",
          "name": "_tokenId",
          "type": "uint256"
        }
      ],
      "name": "MetadataUpdate",
      "type": "event"
    },
    {
      "anonymous": false,
      "inputs": [
        {
          "indexed": false,
          "internalType": "uint256",
          "name": "token_id",
          "type": "uint256"
        }
      ],
      "name": "TokenId",
      "type": "event"
    },
    {
      "anonymous": false,
      "inputs": [
        {
          "indexed": true,
          "internalType": "address",
          "name": "from",
          "type": "address"
        },
        {
          "indexed": true,
          "internalType": "address",
          "name": "to",
          "type": "address"
        },
        {
          "indexed": true,
          "internalType": "uint256",
          "name": "tokenId",
          "type": "uint256"
        }
      ],
      "name": "Transfer",
      "type": "event"
    },
    {
      "inputs": [
        {
          "internalType": "address",
          "name": "to",
          "type": "address"
        },
        {
          "internalType": "uint256",
          "name": "tokenId",
          "type": "uint256"
        }
      ],
      "name": "approve",
      "outputs": [],
      "stateMutability": "nonpayable",
      "type": "function"
    },
    {
      "inputs": [
        {
          "internalType": "address",
          "name": "owner",
          "type": "address"
        }
      ],
      "name": "balanceOf",
      "outputs": [
        {
          "internalType": "uint256",
          "name": "",
          "type": "uint256"
        }
      ],
      "stateMutability": "view",
      "type": "function"
    },
    {
      "inputs": [
        {
          "internalType": "uint256",
          "name": "tokenId",
          "type": "uint256"
        }
      ],
      "name": "getApproved",
      "outputs": [
        {
          "internalType": "address",
          "name": "",
          "type": "address"
        }
      ],
      "stateMutability": "view",
      "type": "function"
    },
    {
      "inputs": [
        {
          "internalType": "address",
          "name": "owner",
          "type": "address"
        },
        {
          "internalType": "address",
          "name": "operator",
          "type": "address"
        }
      ],
      "name": "isApprovedForAll",
      "outputs": [
        {
          "internalType": "bool",
          "name": "",
          "type": "bool"
        }
      ],
      "stateMutability": "view",
      "type": "function"
    },
    {
      "inputs": [],
      "name": "name",
      "outputs": [
        {
          "internalType": "string",
          "name": "",
          "type": "string"
        }
      ],
      "stateMutability": "view",
      "type": "function"
    },
    {
      "inputs": [
        {
          "internalType": "uint256",
          "name": "tokenId",
          "type": "uint256"
        }
      ],
      "name": "ownerOf",
      "outputs": [
        {
          "internalType": "address",
          "name": "",
          "type": "address"
        }
      ],
      "stateMutability": "view",
      "type": "function"
    },
    {
      "inputs": [
        {
          "internalType": "address",
          "name": "from",
          "type": "address"
        },
        {
          "internalType": "address",
          "name": "to",
          "type": "address"
        },
        {
          "internalType": "uint256",
          "name": "tokenId",
          "type": "uint256"
        }
      ],
      "name": "safeTransferFrom",
      "outputs": [],
      "stateMutability": "nonpayable",
      "type": "function"
    },
    {
      "inputs": [
        {
          "internalType": "address",
          "name": "from",
          "type": "address"
        },
        {
          "internalType": "address",
          "name": "to",
          "type": "address"
        },
        {
          "internalType": "uint256",
          "name": "tokenId",
          "type": "uint256"
        },
        {
          "internalType": "bytes",
          "name": "data",
          "type": "bytes"
        }
      ],
      "name": "safeTransferFrom",
      "outputs": [],
      "stateMutability": "nonpayable",
      "type": "function"
    },
    {
      "inputs": [
        {
          "internalType": "address",
          "name": "operator",
          "type": "address"
        },
        {
          "internalType": "bool",
          "name": "approved",
          "type": "bool"
        }
      ],
      "name": "setApprovalForAll",
      "outputs": [],
      "stateMutability": "nonpayable",
      "type": "function"
    },
    {
      "inputs": [
        {
          "internalType": "bytes4",
          "name": "interfaceId",
          "type": "bytes4"
        }
      ],
      "name": "supportsInterface",
      "outputs": [
        {
          "internalType": "bool",
          "name": "",
          "type": "bool"
        }
      ],
      "stateMutability": "view",
      "type": "function"
    },
    {
      "inputs": [],
      "name": "symbol",
      "outputs": [
        {
          "internalType": "string",
          "name": "",
          "type": "string"
        }
      ],
      "stateMutability": "view",
      "type": "function"
    },
    {
      "inputs": [
        {
          "internalType": "uint256",
          "name": "tokenId",
          "type": "uint256"
        }
      ],
      "name": "tokenURI",
      "outputs": [
        {
          "internalType": "string",
          "name": "",
          "type": "string"
        }
      ],
      "stateMutability": "view",
      "type": "function"
    },
    {
      "inputs": [
        {
          "internalType": "address",
          "name": "from",
          "type": "address"
        },
        {
          "internalType": "address",
          "name": "to",
          "type": "address"
        },
        {
          "internalType": "uint256",
          "name": "tokenId",
          "type": "uint256"
        }
      ],
      "name": "transferFrom",
      "outputs": [],
      "stateMutability": "nonpayable",
      "type": "function"
    },
    {
      "inputs": [
        {
          "internalType": "string",
          "name": "tokenURI",
          "type": "string"
        }
      ],
      "name": "criarNovoToken",
      "outputs": [],
      "stateMutability": "nonpayable",
      "type": "function"
    },
    {
      "inputs": [
        {
          "internalType": "address",
          "name": "de",
          "type": "address"
        },
        {
          "internalType": "address",
          "name": "para",
          "type": "address"
        },
        {
          "internalType": "uint256",
          "name": "tokenId",
          "type": "uint256"
        }
      ],
      "name": "transferirTokenExpirado",
      "outputs": [],
      "stateMutability": "nonpayable",
      "type": "function"
    }
  ],
  "bytecode": "0x60806040523480156200001157600080fd5b506040516200318b3803806200318b83398181016040528101906200003791906200017b565b6040518060400160405280600b81526020017f4e4654416c75676176656c0000000000000000000000000000000000000000008152506040518060400160405280600381526020017f41465400000000000000000000000000000000000000000000000000000000008152508160009081620000b4919062000427565b508060019081620000c6919062000427565b50505080600860006101000a81548173ffffffffffffffffffffffffffffffffffffffff021916908373ffffffffffffffffffffffffffffffffffffffff160217905550506200050e565b600080fd5b600073ffffffffffffffffffffffffffffffffffffffff82169050919050565b6000620001438262000116565b9050919050565b620001558162000136565b81146200016157600080fd5b50565b60008151905062000175816200014a565b92915050565b60006020828403121562000194576200019362000111565b5b6000620001a48482850162000164565b91505092915050565b600081519050919050565b7f4e487b7100000000000000000000000000000000000000000000000000000000600052604160045260246000fd5b7f4e487b7100000000000000000000000000000000000000000000000000000000600052602260045260246000fd5b600060028204905060018216806200022f57607f821691505b602082108103620002455762000244620001e7565b5b50919050565b60008190508160005260206000209050919050565b60006020601f8301049050919050565b600082821b905092915050565b600060088302620002af7fffffffffffffffffffffffffffffffffffffffffffffffffffffffffffffffff8262000270565b620002bb868362000270565b95508019841693508086168417925050509392505050565b6000819050919050565b6000819050919050565b60006200030862000302620002fc84620002d3565b620002dd565b620002d3565b9050919050565b6000819050919050565b6200032483620002e7565b6200033c62000333826200030f565b8484546200027d565b825550505050565b600090565b6200035362000344565b6200036081848462000319565b505050565b5b8181101562000388576200037c60008262000349565b60018101905062000366565b5050565b601f821115620003d757620003a1816200024b565b620003ac8462000260565b81016020851015620003bc578190505b620003d4620003cb8562000260565b83018262000365565b50505b505050565b600082821c905092915050565b6000620003fc60001984600802620003dc565b1980831691505092915050565b6000620004178383620003e9565b9150826002028217905092915050565b6200043282620001ad565b67ffffffffffffffff8111156200044e576200044d620001b8565b5b6200045a825462000216565b620004678282856200038c565b600060209050601f8311600181146200049f57600084156200048a578287015190505b62000496858262000409565b86555062000506565b601f198416620004af866200024b565b60005b82811015620004d957848901518255600182019150602085019450602081019050620004b2565b86831015620004f95784890151620004f5601f891682620003e9565b8355505b6001600288020188555050505b505050505050565b612c6d806200051e6000396000f3fe608060405234801561001057600080fd5b50600436106100f55760003560e01c80636352211e11610097578063b88d4fde11610066578063b88d4fde14610282578063c87b56dd1461029e578063ce2ac6bd146102ce578063e985e9c5146102ea576100f5565b80636352211e146101e857806370a082311461021857806395d89b4114610248578063a22cb46514610266576100f5565b8063095ea7b3116100d3578063095ea7b3146101785780630e20d6601461019457806323b872dd146101b057806342842e0e146101cc576100f5565b806301ffc9a7146100fa57806306fdde031461012a578063081812fc14610148575b600080fd5b610114600480360381019061010f9190611add565b61031a565b6040516101219190611b25565b60405180910390f35b61013261037b565b60405161013f9190611bd0565b60405180910390f35b610162600480360381019061015d9190611c28565b61040d565b60405161016f9190611c96565b60405180910390f35b610192600480360381019061018d9190611cdd565b610453565b005b6101ae60048036038101906101a99190611e52565b61056a565b005b6101ca60048036038101906101c59190611e9b565b6105fd565b005b6101e660048036038101906101e19190611e9b565b61065d565b005b61020260048036038101906101fd9190611c28565b61067d565b60405161020f9190611c96565b60405180910390f35b610232600480360381019061022d9190611eee565b610703565b60405161023f9190611f2a565b60405180910390f35b6102506107ba565b60405161025d9190611bd0565b60405180910390f35b610280600480360381019061027b9190611f71565b61084c565b005b61029c60048036038101906102979190612052565b610862565b005b6102b860048036038101906102b39190611c28565b6108c4565b6040516102c59190611bd0565b60405180910390f35b6102e860048036038101906102e39190611e9b565b6109d6565b005b61030460048036038101906102ff91906120d5565b610a76565b6040516103119190611b25565b60405180910390f35b6000634906490660e01b7bffffffffffffffffffffffffffffffffffffffffffffffffffffffff1916827bffffffffffffffffffffffffffffffffffffffffffffffffffffffff19161480610374575061037382610b0a565b5b9050919050565b60606000805461038a90612144565b80601f01602080910402602001604051908101604052809291908181526020018280546103b690612144565b80156104035780601f106103d857610100808354040283529160200191610403565b820191906000526020600020905b8154815290600101906020018083116103e657829003601f168201915b5050505050905090565b600061041882610bec565b6004600083815260200190815260200160002060009054906101000a900473ffffffffffffffffffffffffffffffffffffffff169050919050565b600061045e8261067d565b90508073ffffffffffffffffffffffffffffffffffffffff168373ffffffffffffffffffffffffffffffffffffffff16036104ce576040517f08c379a00000000000000000000000000000000000000000000000000000000081526004016104c5906121e7565b60405180910390fd5b8073ffffffffffffffffffffffffffffffffffffffff166104ed610c37565b73ffffffffffffffffffffffffffffffffffffffff16148061051c575061051b81610516610c37565b610a76565b5b61055b576040517f08c379a000000000000000000000000000000000000000000000000000000000815260040161055290612279565b60405180910390fd5b6105658383610c3f565b505050565b6105746007610cf8565b60006105806007610d0e565b905061058c3382610d1c565b6105968183610f39565b6105c2600860009054906101000a900473ffffffffffffffffffffffffffffffffffffffff1682610453565b7fa4e8e12e12124dbefe84fada6e584fcfaf4862f3b8284a8174f89be901ec4d7d816040516105f19190611f2a565b60405180910390a15050565b61060e610608610c37565b82610fdd565b61064d576040517f08c379a00000000000000000000000000000000000000000000000000000000081526004016106449061230b565b60405180910390fd5b610658838383611072565b505050565b61067883838360405180602001604052806000815250610862565b505050565b6000806106898361136b565b9050600073ffffffffffffffffffffffffffffffffffffffff168173ffffffffffffffffffffffffffffffffffffffff16036106fa576040517f08c379a00000000000000000000000000000000000000000000000000000000081526004016106f190612377565b60405180910390fd5b80915050919050565b60008073ffffffffffffffffffffffffffffffffffffffff168273ffffffffffffffffffffffffffffffffffffffff1603610773576040517f08c379a000000000000000000000000000000000000000000000000000000000815260040161076a90612409565b60405180910390fd5b600360008373ffffffffffffffffffffffffffffffffffffffff1673ffffffffffffffffffffffffffffffffffffffff168152602001908152602001600020549050919050565b6060600180546107c990612144565b80601f01602080910402602001604051908101604052809291908181526020018280546107f590612144565b80156108425780601f1061081757610100808354040283529160200191610842565b820191906000526020600020905b81548152906001019060200180831161082557829003601f168201915b5050505050905090565b61085e610857610c37565b83836113a8565b5050565b61087361086d610c37565b83610fdd565b6108b2576040517f08c379a00000000000000000000000000000000000000000000000000000000081526004016108a99061230b565b60405180910390fd5b6108be84848484611514565b50505050565b60606108cf82610bec565b60006006600084815260200190815260200160002080546108ef90612144565b80601f016020809104026020016040519081016040528092919081815260200182805461091b90612144565b80156109685780601f1061093d57610100808354040283529160200191610968565b820191906000526020600020905b81548152906001019060200180831161094b57829003601f168201915b505050505090506000610979611570565b9050600081510361098e5781925050506109d1565b6000825111156109c35780826040516020016109ab929190612465565b604051602081830303815290604052925050506109d1565b6109cc84611587565b925050505b919050565b600860009054906101000a900473ffffffffffffffffffffffffffffffffffffffff1673ffffffffffffffffffffffffffffffffffffffff163373ffffffffffffffffffffffffffffffffffffffff1614610a66576040517f08c379a0000000000000000000000000000000000000000000000000000000008152600401610a5d906124fb565b60405180910390fd5b610a71838383611072565b505050565b6000600560008473ffffffffffffffffffffffffffffffffffffffff1673ffffffffffffffffffffffffffffffffffffffff16815260200190815260200160002060008373ffffffffffffffffffffffffffffffffffffffff1673ffffffffffffffffffffffffffffffffffffffff16815260200190815260200160002060009054906101000a900460ff16905092915050565b60007f80ac58cd000000000000000000000000000000000000000000000000000000007bffffffffffffffffffffffffffffffffffffffffffffffffffffffff1916827bffffffffffffffffffffffffffffffffffffffffffffffffffffffff19161480610bd557507f5b5e139f000000000000000000000000000000000000000000000000000000007bffffffffffffffffffffffffffffffffffffffffffffffffffffffff1916827bffffffffffffffffffffffffffffffffffffffffffffffffffffffff1916145b80610be55750610be4826115ef565b5b9050919050565b610bf581611659565b610c34576040517f08c379a0000000000000000000000000000000000000000000000000000000008152600401610c2b90612377565b60405180910390fd5b50565b600033905090565b816004600083815260200190815260200160002060006101000a81548173ffffffffffffffffffffffffffffffffffffffff021916908373ffffffffffffffffffffffffffffffffffffffff160217905550808273ffffffffffffffffffffffffffffffffffffffff16610cb28361067d565b73ffffffffffffffffffffffffffffffffffffffff167f8c5be1e5ebec7d5bd14f71427d1e84f3dd0314c0f7b2291e5b200ac8c7c3b92560405160405180910390a45050565b6001816000016000828254019250508190555050565b600081600001549050919050565b600073ffffffffffffffffffffffffffffffffffffffff168273ffffffffffffffffffffffffffffffffffffffff1603610d8b576040517f08c379a0000000000000000000000000000000000000000000000000000000008152600401610d8290612567565b60405180910390fd5b610d9481611659565b15610dd4576040517f08c379a0000000000000000000000000000000000000000000000000000000008152600401610dcb906125d3565b60405180910390fd5b610de260008383600161169a565b610deb81611659565b15610e2b576040517f08c379a0000000000000000000000000000000000000000000000000000000008152600401610e22906125d3565b60405180910390fd5b6001600360008473ffffffffffffffffffffffffffffffffffffffff1673ffffffffffffffffffffffffffffffffffffffff16815260200190815260200160002060008282540192505081905550816002600083815260200190815260200160002060006101000a81548173ffffffffffffffffffffffffffffffffffffffff021916908373ffffffffffffffffffffffffffffffffffffffff160217905550808273ffffffffffffffffffffffffffffffffffffffff16600073ffffffffffffffffffffffffffffffffffffffff167fddf252ad1be2c89b69c2b068fc378daa952ba7f163c4a11628f55a4df523b3ef60405160405180910390a4610f356000838360016116a0565b5050565b610f4282611659565b610f81576040517f08c379a0000000000000000000000000000000000000000000000000000000008152600401610f7890612665565b60405180910390fd5b80600660008481526020019081526020016000209081610fa19190612831565b507ff8e1a15aba9398e019f0b49df1a4fde98ee17ae345cb5f6b5e2c27f5033e8ce782604051610fd19190611f2a565b60405180910390a15050565b600080610fe98361067d565b90508073ffffffffffffffffffffffffffffffffffffffff168473ffffffffffffffffffffffffffffffffffffffff16148061102b575061102a8185610a76565b5b8061106957508373ffffffffffffffffffffffffffffffffffffffff166110518461040d565b73ffffffffffffffffffffffffffffffffffffffff16145b91505092915050565b8273ffffffffffffffffffffffffffffffffffffffff166110928261067d565b73ffffffffffffffffffffffffffffffffffffffff16146110e8576040517f08c379a00000000000000000000000000000000000000000000000000000000081526004016110df90612975565b60405180910390fd5b600073ffffffffffffffffffffffffffffffffffffffff168273ffffffffffffffffffffffffffffffffffffffff1603611157576040517f08c379a000000000000000000000000000000000000000000000000000000000815260040161114e90612a07565b60405180910390fd5b611164838383600161169a565b8273ffffffffffffffffffffffffffffffffffffffff166111848261067d565b73ffffffffffffffffffffffffffffffffffffffff16146111da576040517f08c379a00000000000000000000000000000000000000000000000000000000081526004016111d190612975565b60405180910390fd5b6004600082815260200190815260200160002060006101000a81549073ffffffffffffffffffffffffffffffffffffffff02191690556001600360008573ffffffffffffffffffffffffffffffffffffffff1673ffffffffffffffffffffffffffffffffffffffff168152602001908152602001600020600082825403925050819055506001600360008473ffffffffffffffffffffffffffffffffffffffff1673ffffffffffffffffffffffffffffffffffffffff16815260200190815260200160002060008282540192505081905550816002600083815260200190815260200160002060006101000a81548173ffffffffffffffffffffffffffffffffffffffff021916908373ffffffffffffffffffffffffffffffffffffffff160217905550808273ffffffffffffffffffffffffffffffffffffffff168473ffffffffffffffffffffffffffffffffffffffff167fddf252ad1be2c89b69c2b068fc378daa952ba7f163c4a11628f55a4df523b3ef60405160405180910390a461136683838360016116a0565b505050565b60006002600083815260200190815260200160002060009054906101000a900473ffffffffffffffffffffffffffffffffffffffff169050919050565b8173ffffffffffffffffffffffffffffffffffffffff168373ffffffffffffffffffffffffffffffffffffffff1603611416576040517f08c379a000000000000000000000000000000000000000000000000000000000815260040161140d90612a73565b60405180910390fd5b80600560008573ffffffffffffffffffffffffffffffffffffffff1673ffffffffffffffffffffffffffffffffffffffff16815260200190815260200160002060008473ffffffffffffffffffffffffffffffffffffffff1673ffffffffffffffffffffffffffffffffffffffff16815260200190815260200160002060006101000a81548160ff0219169083151502179055508173ffffffffffffffffffffffffffffffffffffffff168373ffffffffffffffffffffffffffffffffffffffff167f17307eab39ab6107e8899845ad3d59bd9653f200f220920489ca2b5937696c31836040516115079190611b25565b60405180910390a3505050565b61151f848484611072565b61152b848484846116a6565b61156a576040517f08c379a000000000000000000000000000000000000000000000000000000000815260040161156190612b05565b60405180910390fd5b50505050565b606060405180602001604052806000815250905090565b606061159282610bec565b600061159c611570565b905060008151116115bc57604051806020016040528060008152506115e7565b806115c68461182d565b6040516020016115d7929190612465565b6040516020818303038152906040525b915050919050565b60007f01ffc9a7000000000000000000000000000000000000000000000000000000007bffffffffffffffffffffffffffffffffffffffffffffffffffffffff1916827bffffffffffffffffffffffffffffffffffffffffffffffffffffffff1916149050919050565b60008073ffffffffffffffffffffffffffffffffffffffff1661167b8361136b565b73ffffffffffffffffffffffffffffffffffffffff1614159050919050565b50505050565b50505050565b60006116c78473ffffffffffffffffffffffffffffffffffffffff166118fb565b15611820578373ffffffffffffffffffffffffffffffffffffffff1663150b7a026116f0610c37565b8786866040518563ffffffff1660e01b81526004016117129493929190612b7a565b6020604051808303816000875af192505050801561174e57506040513d601f19601f8201168201806040525081019061174b9190612bdb565b60015b6117d0573d806000811461177e576040519150601f19603f3d011682016040523d82523d6000602084013e611783565b606091505b5060008151036117c8576040517f08c379a00000000000000000000000000000000000000000000000000000000081526004016117bf90612b05565b60405180910390fd5b805181602001fd5b63150b7a0260e01b7bffffffffffffffffffffffffffffffffffffffffffffffffffffffff1916817bffffffffffffffffffffffffffffffffffffffffffffffffffffffff191614915050611825565b600190505b949350505050565b60606000600161183c8461191e565b01905060008167ffffffffffffffff81111561185b5761185a611d27565b5b6040519080825280601f01601f19166020018201604052801561188d5781602001600182028036833780820191505090505b509050600082602001820190505b6001156118f0578080600190039150507f3031323334353637383961626364656600000000000000000000000000000000600a86061a8153600a85816118e4576118e3612c08565b5b0494506000850361189b575b819350505050919050565b6000808273ffffffffffffffffffffffffffffffffffffffff163b119050919050565b600080600090507a184f03e93ff9f4daa797ed6e38ed64bf6a1f010000000000000000831061197c577a184f03e93ff9f4daa797ed6e38ed64bf6a1f010000000000000000838161197257611971612c08565b5b0492506040810190505b6d04ee2d6d415b85acef810000000083106119b9576d04ee2d6d415b85acef810000000083816119af576119ae612c08565b5b0492506020810190505b662386f26fc1000083106119e857662386f26fc1000083816119de576119dd612c08565b5b0492506010810190505b6305f5e1008310611a11576305f5e1008381611a0757611a06612c08565b5b0492506008810190505b6127108310611a36576127108381611a2c57611a2b612c08565b5b0492506004810190505b60648310611a595760648381611a4f57611a4e612c08565b5b0492506002810190505b600a8310611a68576001810190505b80915050919050565b6000604051905090565b600080fd5b600080fd5b60007fffffffff0000000000000000000000000000000000000000000000000000000082169050919050565b611aba81611a85565b8114611ac557600080fd5b50565b600081359050611ad781611ab1565b92915050565b600060208284031215611af357611af2611a7b565b5b6000611b0184828501611ac8565b91505092915050565b60008115159050919050565b611b1f81611b0a565b82525050565b6000602082019050611b3a6000830184611b16565b92915050565b600081519050919050565b600082825260208201905092915050565b60005b83811015611b7a578082015181840152602081019050611b5f565b60008484015250505050565b6000601f19601f8301169050919050565b6000611ba282611b40565b611bac8185611b4b565b9350611bbc818560208601611b5c565b611bc581611b86565b840191505092915050565b60006020820190508181036000830152611bea8184611b97565b905092915050565b6000819050919050565b611c0581611bf2565b8114611c1057600080fd5b50565b600081359050611c2281611bfc565b92915050565b600060208284031215611c3e57611c3d611a7b565b5b6000611c4c84828501611c13565b91505092915050565b600073ffffffffffffffffffffffffffffffffffffffff82169050919050565b6000611c8082611c55565b9050919050565b611c9081611c75565b82525050565b6000602082019050611cab6000830184611c87565b92915050565b611cba81611c75565b8114611cc557600080fd5b50565b600081359050611cd781611cb1565b92915050565b60008060408385031215611cf457611cf3611a7b565b5b6000611d0285828601611cc8565b9250506020611d1385828601611c13565b9150509250929050565b600080fd5b600080fd5b7f4e487b7100000000000000000000000000000000000000000000000000000000600052604160045260246000fd5b611d5f82611b86565b810181811067ffffffffffffffff82111715611d7e57611d7d611d27565b5b80604052505050565b6000611d91611a71565b9050611d9d8282611d56565b919050565b600067ffffffffffffffff821115611dbd57611dbc611d27565b5b611dc682611b86565b9050602081019050919050565b82818337600083830152505050565b6000611df5611df084611da2565b611d87565b905082815260208101848484011115611e1157611e10611d22565b5b611e1c848285611dd3565b509392505050565b600082601f830112611e3957611e38611d1d565b5b8135611e49848260208601611de2565b91505092915050565b600060208284031215611e6857611e67611a7b565b5b600082013567ffffffffffffffff811115611e8657611e85611a80565b5b611e9284828501611e24565b91505092915050565b600080600060608486031215611eb457611eb3611a7b565b5b6000611ec286828701611cc8565b9350506020611ed386828701611cc8565b9250506040611ee486828701611c13565b9150509250925092565b600060208284031215611f0457611f03611a7b565b5b6000611f1284828501611cc8565b91505092915050565b611f2481611bf2565b82525050565b6000602082019050611f3f6000830184611f1b565b92915050565b611f4e81611b0a565b8114611f5957600080fd5b50565b600081359050611f6b81611f45565b92915050565b60008060408385031215611f8857611f87611a7b565b5b6000611f9685828601611cc8565b9250506020611fa785828601611f5c565b9150509250929050565b600067ffffffffffffffff821115611fcc57611fcb611d27565b5b611fd582611b86565b9050602081019050919050565b6000611ff5611ff084611fb1565b611d87565b90508281526020810184848401111561201157612010611d22565b5b61201c848285611dd3565b509392505050565b600082601f83011261203957612038611d1d565b5b8135612049848260208601611fe2565b91505092915050565b6000806000806080858703121561206c5761206b611a7b565b5b600061207a87828801611cc8565b945050602061208b87828801611cc8565b935050604061209c87828801611c13565b925050606085013567ffffffffffffffff8111156120bd576120bc611a80565b5b6120c987828801612024565b91505092959194509250565b600080604083850312156120ec576120eb611a7b565b5b60006120fa85828601611cc8565b925050602061210b85828601611cc8565b9150509250929050565b7f4e487b7100000000000000000000000000000000000000000000000000000000600052602260045260246000fd5b6000600282049050600182168061215c57607f821691505b60208210810361216f5761216e612115565b5b50919050565b7f4552433732313a20617070726f76616c20746f2063757272656e74206f776e6560008201527f7200000000000000000000000000000000000000000000000000000000000000602082015250565b60006121d1602183611b4b565b91506121dc82612175565b604082019050919050565b60006020820190508181036000830152612200816121c4565b9050919050565b7f4552433732313a20617070726f76652063616c6c6572206973206e6f7420746f60008201527f6b656e206f776e6572206f7220617070726f76656420666f7220616c6c000000602082015250565b6000612263603d83611b4b565b915061226e82612207565b604082019050919050565b6000602082019050818103600083015261229281612256565b9050919050565b7f4552433732313a2063616c6c6572206973206e6f7420746f6b656e206f776e6560008201527f72206f7220617070726f76656400000000000000000000000000000000000000602082015250565b60006122f5602d83611b4b565b915061230082612299565b604082019050919050565b60006020820190508181036000830152612324816122e8565b9050919050565b7f4552433732313a20696e76616c696420746f6b656e2049440000000000000000600082015250565b6000612361601883611b4b565b915061236c8261232b565b602082019050919050565b6000602082019050818103600083015261239081612354565b9050919050565b7f4552433732313a2061646472657373207a65726f206973206e6f74206120766160008201527f6c6964206f776e65720000000000000000000000000000000000000000000000602082015250565b60006123f3602983611b4b565b91506123fe82612397565b604082019050919050565b60006020820190508181036000830152612422816123e6565b9050919050565b600081905092915050565b600061243f82611b40565b6124498185612429565b9350612459818560208601611b5c565b80840191505092915050565b60006124718285612434565b915061247d8284612434565b91508190509392505050565b7f4170656e6173206f206d61726b6574706c61636520706f6465207574696c697a60008201527f61722065737365206d65746f646f210000000000000000000000000000000000602082015250565b60006124e5602f83611b4b565b91506124f082612489565b604082019050919050565b60006020820190508181036000830152612514816124d8565b9050919050565b7f4552433732313a206d696e7420746f20746865207a65726f2061646472657373600082015250565b6000612551602083611b4b565b915061255c8261251b565b602082019050919050565b6000602082019050818103600083015261258081612544565b9050919050565b7f4552433732313a20746f6b656e20616c7265616479206d696e74656400000000600082015250565b60006125bd601c83611b4b565b91506125c882612587565b602082019050919050565b600060208201905081810360008301526125ec816125b0565b9050919050565b7f45524337323155524953746f726167653a2055524920736574206f66206e6f6e60008201527f6578697374656e7420746f6b656e000000000000000000000000000000000000602082015250565b600061264f602e83611b4b565b915061265a826125f3565b604082019050919050565b6000602082019050818103600083015261267e81612642565b9050919050565b60008190508160005260206000209050919050565b60006020601f8301049050919050565b600082821b905092915050565b6000600883026126e77fffffffffffffffffffffffffffffffffffffffffffffffffffffffffffffffff826126aa565b6126f186836126aa565b95508019841693508086168417925050509392505050565b6000819050919050565b600061272e61272961272484611bf2565b612709565b611bf2565b9050919050565b6000819050919050565b61274883612713565b61275c61275482612735565b8484546126b7565b825550505050565b600090565b612771612764565b61277c81848461273f565b505050565b5b818110156127a057612795600082612769565b600181019050612782565b5050565b601f8211156127e5576127b681612685565b6127bf8461269a565b810160208510156127ce578190505b6127e26127da8561269a565b830182612781565b50505b505050565b600082821c905092915050565b6000612808600019846008026127ea565b1980831691505092915050565b600061282183836127f7565b9150826002028217905092915050565b61283a82611b40565b67ffffffffffffffff81111561285357612852611d27565b5b61285d8254612144565b6128688282856127a4565b600060209050601f83116001811461289b5760008415612889578287015190505b6128938582612815565b8655506128fb565b601f1984166128a986612685565b60005b828110156128d1578489015182556001820191506020850194506020810190506128ac565b868310156128ee57848901516128ea601f8916826127f7565b8355505b6001600288020188555050505b505050505050565b7f4552433732313a207472616e736665722066726f6d20696e636f72726563742060008201527f6f776e6572000000000000000000000000000000000000000000000000000000602082015250565b600061295f602583611b4b565b915061296a82612903565b604082019050919050565b6000602082019050818103600083015261298e81612952565b9050919050565b7f4552433732313a207472616e7366657220746f20746865207a65726f2061646460008201527f7265737300000000000000000000000000000000000000000000000000000000602082015250565b60006129f1602483611b4b565b91506129fc82612995565b604082019050919050565b60006020820190508181036000830152612a20816129e4565b9050919050565b7f4552433732313a20617070726f766520746f2063616c6c657200000000000000600082015250565b6000612a5d601983611b4b565b9150612a6882612a27565b602082019050919050565b60006020820190508181036000830152612a8c81612a50565b9050919050565b7f4552433732313a207472616e7366657220746f206e6f6e20455243373231526560008201527f63656976657220696d706c656d656e7465720000000000000000000000000000602082015250565b6000612aef603283611b4b565b9150612afa82612a93565b604082019050919050565b60006020820190508181036000830152612b1e81612ae2565b9050919050565b600081519050919050565b600082825260208201905092915050565b6000612b4c82612b25565b612b568185612b30565b9350612b66818560208601611b5c565b612b6f81611b86565b840191505092915050565b6000608082019050612b8f6000830187611c87565b612b9c6020830186611c87565b612ba96040830185611f1b565b8181036060830152612bbb8184612b41565b905095945050505050565b600081519050612bd581611ab1565b92915050565b600060208284031215612bf157612bf0611a7b565b5b6000612bff84828501612bc6565b91505092915050565b7f4e487b7100000000000000000000000000000000000000000000000000000000600052601260045260246000fdfea26469706673582212207ec32757bc15e15e171423fc3d840aa61cb5b659bfafa9d6543ac0d3f644ed1764736f6c63430008110033",
  "immutableReferences": {},
  "source": "// SPDX-License-Identifier: MIT\npragma solidity ^0.8.3;\n\n// Padres ERC721\n// import \"https://github.com/OpenZeppelin/openzeppelin-contracts/contracts/token/ERC721/ERC721.sol\";\nimport \"../node_modules/@openzeppelin/contracts/token/ERC721/ERC721.sol\";\n//import \"https://github.com/OpenZeppelin/openzeppelin-contracts/contracts1/token/ERC721/extensions/ERC721URIStorage.sol\";\nimport \"../node_modules/@openzeppelin/contracts/token/ERC721/extensions/ERC721URIStorage.sol\";\n// Contador para os IDs dos Tokens\n// import \"https://github.com/OpenZeppelin/openzeppelin-contracts/contracts/utils/Counters.sol\";\nimport \"../node_modules/@openzeppelin/contracts/utils/Counters.sol\";\n\n\ncontract NFT is ERC721URIStorage {\n    /*\n        Contrato contendo os atributos e mtodos\n        para criar e manipular um Token No-Fungvel.\n    */\n\n    // Importando utilizao do contador\n    using Counters for Counters.Counter;\n    // Contador para os IDs dos Tokens\n    Counters.Counter private _tokenIds;\n\n    // Endereo do contrato do marketplace de aluguel\n    // Usado para verificar se quem chama as funes  de fato o marketplace\n    address marketplace;\n\n    // Evento para retornar o ID do Token aps sua criao\n    event TokenId(uint256 token_id);\n\n    // Construtor inicializa o endereo do contrato de aluguel\n    constructor(address enderecoContratoMarketplace) ERC721(\"NFTAlugavel\", \"AFT\") {\n        marketplace = enderecoContratoMarketplace;\n    }\n\n    // Funo que cria um novo AFT\n    function criarNovoToken(string memory tokenURI) public {\n        _tokenIds.increment();\n        uint256 novoId = _tokenIds.current();\n        \n        // _mint(msg.sender, newItemId);\n        _mint(msg.sender, novoId);\n        _setTokenURI(novoId, tokenURI);\n        approve(marketplace, novoId);\n\n        emit TokenId(novoId);\n    }\n\n    // Funo que transfere um AFT do dono para o comprador\n    function transferirTokenExpirado(address de, address para, uint256 tokenId) external apenasMarketplace {\n        _transfer(de, para, tokenId);\n    }\n    \n    // Modificador utilizado para indicar quais funes apenas o Marketplace pode chamar\n    modifier apenasMarketplace(){\n        require(msg.sender == marketplace, \"Apenas o marketplace pode utilizar esse metodo!\");\n        _;\n    }\n}",
  "sourcePath": "/home/itallo/Documentos/Meus-Projetos/ERC721/minicurso2-sbrc2022/contracts/NFT.sol",
  "compiler": {
    "name": "solc",
    "version": "0.8.17+commit.8df45f5f.Emscripten.clang"
  },
  "schemaVersion": "3.4.11",
  "updatedAt": "2023-05-31T21:35:50.065Z",
  "devdoc": {
    "kind": "dev",
    "methods": {
      "approve(address,uint256)": {
        "details": "See {IERC721-approve}."
      },
      "balanceOf(address)": {
        "details": "See {IERC721-balanceOf}."
      },
      "getApproved(uint256)": {
        "details": "See {IERC721-getApproved}."
      },
      "isApprovedForAll(address,address)": {
        "details": "See {IERC721-isApprovedForAll}."
      },
      "name()": {
        "details": "See {IERC721Metadata-name}."
      },
      "ownerOf(uint256)": {
        "details": "See {IERC721-ownerOf}."
      },
      "safeTransferFrom(address,address,uint256)": {
        "details": "See {IERC721-safeTransferFrom}."
      },
      "safeTransferFrom(address,address,uint256,bytes)": {
        "details": "See {IERC721-safeTransferFrom}."
      },
      "setApprovalForAll(address,bool)": {
        "details": "See {IERC721-setApprovalForAll}."
      },
      "supportsInterface(bytes4)": {
        "details": "See {IERC165-supportsInterface}"
      },
      "symbol()": {
        "details": "See {IERC721Metadata-symbol}."
      },
      "tokenURI(uint256)": {
        "details": "See {IERC721Metadata-tokenURI}."
      },
      "transferFrom(address,address,uint256)": {
        "details": "See {IERC721-transferFrom}."
      }
    },
    "version": 1
  },
  "userdoc": {
    "kind": "user",
    "methods": {},
    "version": 1
  }
}