{
  "contractName": "Marketplace",
  "abi": [
    {
      "inputs": [],
      "stateMutability": "nonpayable",
      "type": "constructor"
    },
    {
      "anonymous": false,
      "inputs": [
        {
          "indexed": true,
          "internalType": "uint256",
          "name": "itemId",
          "type": "uint256"
        },
        {
          "indexed": false,
          "internalType": "bool",
          "name": "statusAlugado",
          "type": "bool"
        },
        {
          "indexed": true,
          "internalType": "address",
          "name": "contratoNFT",
          "type": "address"
        },
        {
          "indexed": true,
          "internalType": "uint256",
          "name": "tokenId",
          "type": "uint256"
        },
        {
          "indexed": false,
          "internalType": "address",
          "name": "vendedor",
          "type": "address"
        },
        {
          "indexed": false,
          "internalType": "address",
          "name": "locatario",
          "type": "address"
        },
        {
          "indexed": false,
          "internalType": "uint256",
          "name": "preco",
          "type": "uint256"
        },
        {
          "indexed": false,
          "internalType": "uint256",
          "name": "expiraEm",
          "type": "uint256"
        },
        {
          "indexed": false,
          "internalType": "bytes32",
          "name": "descricao",
          "type": "bytes32"
        }
      ],
      "name": "ItemCriado",
      "type": "event"
    },
    {
      "inputs": [],
      "name": "getTaxaMarketplace",
      "outputs": [
        {
          "internalType": "uint256",
          "name": "",
          "type": "uint256"
        }
      ],
      "stateMutability": "view",
      "type": "function",
      "constant": true
    },
    {
      "inputs": [
        {
          "internalType": "uint256",
          "name": "_novaTaxa",
          "type": "uint256"
        }
      ],
      "name": "setTaxaMarketplace",
      "outputs": [],
      "stateMutability": "nonpayable",
      "type": "function"
    },
    {
      "inputs": [
        {
          "internalType": "address",
          "name": "contratoNFT",
          "type": "address"
        },
        {
          "internalType": "uint256",
          "name": "tokenId",
          "type": "uint256"
        },
        {
          "internalType": "uint256",
          "name": "preco",
          "type": "uint256"
        },
        {
          "internalType": "uint256",
          "name": "expiraEm",
          "type": "uint256"
        },
        {
          "internalType": "bytes32",
          "name": "descricao",
          "type": "bytes32"
        }
      ],
      "name": "criaItemAlugavel",
      "outputs": [],
      "stateMutability": "payable",
      "type": "function",
      "payable": true
    },
    {
      "inputs": [
        {
          "internalType": "address",
          "name": "contratoNFT",
          "type": "address"
        },
        {
          "internalType": "uint256",
          "name": "itemId",
          "type": "uint256"
        }
      ],
      "name": "alugarItem",
      "outputs": [],
      "stateMutability": "payable",
      "type": "function",
      "payable": true
    },
    {
      "inputs": [
        {
          "internalType": "uint256",
          "name": "itemId",
          "type": "uint256"
        }
      ],
      "name": "finalizaAluguel",
      "outputs": [],
      "stateMutability": "nonpayable",
      "type": "function"
    },
    {
      "inputs": [],
      "name": "getNFTsAlugaveis",
      "outputs": [
        {
          "components": [
            {
              "internalType": "uint256",
              "name": "itemId",
              "type": "uint256"
            },
            {
              "internalType": "bool",
              "name": "statusAlugado",
              "type": "bool"
            },
            {
              "internalType": "address",
              "name": "contratoNFT",
              "type": "address"
            },
            {
              "internalType": "uint256",
              "name": "tokenId",
              "type": "uint256"
            },
            {
              "internalType": "address payable",
              "name": "vendedor",
              "type": "address"
            },
            {
              "internalType": "address",
              "name": "locatario",
              "type": "address"
            },
            {
              "internalType": "uint256",
              "name": "preco",
              "type": "uint256"
            },
            {
              "internalType": "uint256",
              "name": "expiraEm",
              "type": "uint256"
            },
            {
              "internalType": "bytes32",
              "name": "descricao",
              "type": "bytes32"
            }
          ],
          "internalType": "struct Marketplace.Item[]",
          "name": "",
          "type": "tuple[]"
        }
      ],
      "stateMutability": "view",
      "type": "function",
      "constant": true
    },
    {
      "inputs": [],
      "name": "getNFTsPorVendedor",
      "outputs": [
        {
          "components": [
            {
              "internalType": "uint256",
              "name": "itemId",
              "type": "uint256"
            },
            {
              "internalType": "bool",
              "name": "statusAlugado",
              "type": "bool"
            },
            {
              "internalType": "address",
              "name": "contratoNFT",
              "type": "address"
            },
            {
              "internalType": "uint256",
              "name": "tokenId",
              "type": "uint256"
            },
            {
              "internalType": "address payable",
              "name": "vendedor",
              "type": "address"
            },
            {
              "internalType": "address",
              "name": "locatario",
              "type": "address"
            },
            {
              "internalType": "uint256",
              "name": "preco",
              "type": "uint256"
            },
            {
              "internalType": "uint256",
              "name": "expiraEm",
              "type": "uint256"
            },
            {
              "internalType": "bytes32",
              "name": "descricao",
              "type": "bytes32"
            }
          ],
          "internalType": "struct Marketplace.Item[]",
          "name": "",
          "type": "tuple[]"
        }
      ],
      "stateMutability": "view",
      "type": "function",
      "constant": true
    },
    {
      "inputs": [],
      "name": "getNFTsPorLocatario",
      "outputs": [
        {
          "components": [
            {
              "internalType": "uint256",
              "name": "itemId",
              "type": "uint256"
            },
            {
              "internalType": "bool",
              "name": "statusAlugado",
              "type": "bool"
            },
            {
              "internalType": "address",
              "name": "contratoNFT",
              "type": "address"
            },
            {
              "internalType": "uint256",
              "name": "tokenId",
              "type": "uint256"
            },
            {
              "internalType": "address payable",
              "name": "vendedor",
              "type": "address"
            },
            {
              "internalType": "address",
              "name": "locatario",
              "type": "address"
            },
            {
              "internalType": "uint256",
              "name": "preco",
              "type": "uint256"
            },
            {
              "internalType": "uint256",
              "name": "expiraEm",
              "type": "uint256"
            },
            {
              "internalType": "bytes32",
              "name": "descricao",
              "type": "bytes32"
            }
          ],
          "internalType": "struct Marketplace.Item[]",
          "name": "",
          "type": "tuple[]"
        }
      ],
      "stateMutability": "view",
      "type": "function",
      "constant": true
    },
    {
      "inputs": [],
      "name": "getNFTsExpiradosEAlugados",
      "outputs": [
        {
          "components": [
            {
              "internalType": "uint256",
              "name": "itemId",
              "type": "uint256"
            },
            {
              "internalType": "bool",
              "name": "statusAlugado",
              "type": "bool"
            },
            {
              "internalType": "address",
              "name": "contratoNFT",
              "type": "address"
            },
            {
              "internalType": "uint256",
              "name": "tokenId",
              "type": "uint256"
            },
            {
              "internalType": "address payable",
              "name": "vendedor",
              "type": "address"
            },
            {
              "internalType": "address",
              "name": "locatario",
              "type": "address"
            },
            {
              "internalType": "uint256",
              "name": "preco",
              "type": "uint256"
            },
            {
              "internalType": "uint256",
              "name": "expiraEm",
              "type": "uint256"
            },
            {
              "internalType": "bytes32",
              "name": "descricao",
              "type": "bytes32"
            }
          ],
          "internalType": "struct Marketplace.Item[]",
          "name": "",
          "type": "tuple[]"
        }
      ],
      "stateMutability": "view",
      "type": "function",
      "constant": true
    }
  ],
  "bytecode": "0x608060405234801561001057600080fd5b5033600360006101000a81548173ffffffffffffffffffffffffffffffffffffffff021916908373ffffffffffffffffffffffffffffffffffffffff16021790555066470de4df8200006004819055506126518061006f6000396000f3fe6080604052600436106100865760003560e01c80639ab598db116100595780639ab598db14610119578063af809f1a14610144578063bd2dc1b11461016f578063c60506d41461019a578063d8d4b4b2146101c357610086565b80631725234e1461008b578063222c3d6c146100a75780634ba8f5d4146100c357806377057857146100ee575b600080fd5b6100a560048036038101906100a09190611b4c565b6101ec565b005b6100c160048036038101906100bc9190611bc7565b61058d565b005b3480156100cf57600080fd5b506100d861090c565b6040516100e59190611dd7565b60405180910390f35b3480156100fa57600080fd5b50610103610c0b565b6040516101109190611dd7565b60405180910390f35b34801561012557600080fd5b5061012e610f44565b60405161013b9190611e08565b60405180910390f35b34801561015057600080fd5b50610159610f4e565b6040516101669190611dd7565b60405180910390f35b34801561017b57600080fd5b50610184611287565b6040516101919190611dd7565b60405180910390f35b3480156101a657600080fd5b506101c160048036038101906101bc9190611e23565b611582565b005b3480156101cf57600080fd5b506101ea60048036038101906101e59190611e23565b61192c565b005b6000831161022f576040517f08c379a000000000000000000000000000000000000000000000000000000000815260040161022690611ed3565b60405180910390fd5b6004543414610273576040517f08c379a000000000000000000000000000000000000000000000000000000000815260040161026a90611f65565b60405180910390fd5b61027d60006119c6565b600061028960006119dc565b90506040518061012001604052808281526020016000151581526020018773ffffffffffffffffffffffffffffffffffffffff1681526020018681526020013373ffffffffffffffffffffffffffffffffffffffff168152602001600073ffffffffffffffffffffffffffffffffffffffff16815260200185815260200184815260200183815250600560008381526020019081526020016000206000820151816000015560208201518160010160006101000a81548160ff02191690831515021790555060408201518160010160016101000a81548173ffffffffffffffffffffffffffffffffffffffff021916908373ffffffffffffffffffffffffffffffffffffffff1602179055506060820151816002015560808201518160030160006101000a81548173ffffffffffffffffffffffffffffffffffffffff021916908373ffffffffffffffffffffffffffffffffffffffff16021790555060a08201518160040160006101000a81548173ffffffffffffffffffffffffffffffffffffffff021916908373ffffffffffffffffffffffffffffffffffffffff16021790555060c0820151816005015560e0820151816006015561010082015181600701559050508573ffffffffffffffffffffffffffffffffffffffff166323b872dd3330886040518463ffffffff1660e01b815260040161048c93929190611f94565b600060405180830381600087803b1580156104a657600080fd5b505af11580156104ba573d6000803e3d6000fd5b50505050600360009054906101000a900473ffffffffffffffffffffffffffffffffffffffff1673ffffffffffffffffffffffffffffffffffffffff166108fc6004549081150290604051600060405180830381858888f19350505050158015610528573d6000803e3d6000fd5b50848673ffffffffffffffffffffffffffffffffffffffff16827ff028d07ef421f72b886f43642526a469d124e6db1b4c3626b3b517848d2f8df560003360008a8a8a60405161057d96959493929190611fe9565b60405180910390a4505050505050565b6000600560008381526020019081526020016000206005015490506000600560008481526020019081526020016000206002015490506005600084815260200190815260200160002060010160009054906101000a900460ff1615610627576040517f08c379a000000000000000000000000000000000000000000000000000000000815260040161061e90612096565b60405180910390fd5b3073ffffffffffffffffffffffffffffffffffffffff168473ffffffffffffffffffffffffffffffffffffffff16636352211e836040518263ffffffff1660e01b81526004016106779190611e08565b602060405180830381865afa158015610694573d6000803e3d6000fd5b505050506040513d601f19601f820116820180604052508101906106b891906120cb565b73ffffffffffffffffffffffffffffffffffffffff161461070e576040517f08c379a000000000000000000000000000000000000000000000000000000000815260040161070590612144565b60405180910390fd5b813414610750576040517f08c379a0000000000000000000000000000000000000000000000000000000008152600401610747906121d6565b60405180910390fd5b6005600084815260200190815260200160002060030160009054906101000a900473ffffffffffffffffffffffffffffffffffffffff1673ffffffffffffffffffffffffffffffffffffffff166108fc349081150290604051600060405180830381858888f193505050501580156107cc573d6000803e3d6000fd5b508373ffffffffffffffffffffffffffffffffffffffff166323b872dd3033846040518463ffffffff1660e01b815260040161080a93929190611f94565b600060405180830381600087803b15801561082457600080fd5b505af1158015610838573d6000803e3d6000fd5b5050505042600560008581526020019081526020016000206006015461085e9190612225565b6005600085815260200190815260200160002060060181905550336005600085815260200190815260200160002060040160006101000a81548173ffffffffffffffffffffffffffffffffffffffff021916908373ffffffffffffffffffffffffffffffffffffffff16021790555060016005600085815260200190815260200160002060010160006101000a81548160ff02191690831515021790555061090660016119c6565b50505050565b6060600061091a60006119dc565b90506000806000600190505b83811161099d57600060056000838152602001908152602001600020600001541415801561097557506005600082815260200190815260200160002060010160009054906101000a900460ff16155b1561098a576001836109879190612225565b92505b80806109959061227b565b915050610926565b5060008267ffffffffffffffff8111156109ba576109b96122c4565b5b6040519080825280602002602001820160405280156109f357816020015b6109e06119ea565b8152602001906001900390816109d85790505b5090506000600190505b848111610c00576000600560008381526020019081526020016000206000015414158015610a4c57506005600082815260200190815260200160002060010160009054906101000a900460ff16155b15610bed576005600082815260200190815260200160002060405180610120016040529081600082015481526020016001820160009054906101000a900460ff161515151581526020016001820160019054906101000a900473ffffffffffffffffffffffffffffffffffffffff1673ffffffffffffffffffffffffffffffffffffffff1673ffffffffffffffffffffffffffffffffffffffff168152602001600282015481526020016003820160009054906101000a900473ffffffffffffffffffffffffffffffffffffffff1673ffffffffffffffffffffffffffffffffffffffff1673ffffffffffffffffffffffffffffffffffffffff1681526020016004820160009054906101000a900473ffffffffffffffffffffffffffffffffffffffff1673ffffffffffffffffffffffffffffffffffffffff1673ffffffffffffffffffffffffffffffffffffffff1681526020016005820154815260200160068201548152602001600782015481525050828481518110610bd257610bd16122f3565b5b6020026020010181905250600183610bea9190612225565b92505b8080610bf89061227b565b9150506109fd565b508094505050505090565b60606000610c1960006119dc565b90506000806000600190505b838111610cb9573373ffffffffffffffffffffffffffffffffffffffff166005600083815260200190815260200160002060030160009054906101000a900473ffffffffffffffffffffffffffffffffffffffff1673ffffffffffffffffffffffffffffffffffffffff161415610ca657600183610ca39190612225565b92505b8080610cb19061227b565b915050610c25565b5060008267ffffffffffffffff811115610cd657610cd56122c4565b5b604051908082528060200260200182016040528015610d0f57816020015b610cfc6119ea565b815260200190600190039081610cf45790505b5090506000600190505b848111610f39573373ffffffffffffffffffffffffffffffffffffffff166005600083815260200190815260200160002060030160009054906101000a900473ffffffffffffffffffffffffffffffffffffffff1673ffffffffffffffffffffffffffffffffffffffff161415610f26576005600082815260200190815260200160002060405180610120016040529081600082015481526020016001820160009054906101000a900460ff161515151581526020016001820160019054906101000a900473ffffffffffffffffffffffffffffffffffffffff1673ffffffffffffffffffffffffffffffffffffffff1673ffffffffffffffffffffffffffffffffffffffff168152602001600282015481526020016003820160009054906101000a900473ffffffffffffffffffffffffffffffffffffffff1673ffffffffffffffffffffffffffffffffffffffff1673ffffffffffffffffffffffffffffffffffffffff1681526020016004820160009054906101000a900473ffffffffffffffffffffffffffffffffffffffff1673ffffffffffffffffffffffffffffffffffffffff1673ffffffffffffffffffffffffffffffffffffffff1681526020016005820154815260200160068201548152602001600782015481525050828481518110610f0b57610f0a6122f3565b5b6020026020010181905250600183610f239190612225565b92505b8080610f319061227b565b915050610d19565b508094505050505090565b6000600454905090565b60606000610f5c60006119dc565b90506000806000600190505b838111610ffc573373ffffffffffffffffffffffffffffffffffffffff166005600083815260200190815260200160002060040160009054906101000a900473ffffffffffffffffffffffffffffffffffffffff1673ffffffffffffffffffffffffffffffffffffffff161415610fe957600183610fe69190612225565b92505b8080610ff49061227b565b915050610f68565b5060008267ffffffffffffffff811115611019576110186122c4565b5b60405190808252806020026020018201604052801561105257816020015b61103f6119ea565b8152602001906001900390816110375790505b5090506000600190505b84811161127c573373ffffffffffffffffffffffffffffffffffffffff166005600083815260200190815260200160002060040160009054906101000a900473ffffffffffffffffffffffffffffffffffffffff1673ffffffffffffffffffffffffffffffffffffffff161415611269576005600082815260200190815260200160002060405180610120016040529081600082015481526020016001820160009054906101000a900460ff161515151581526020016001820160019054906101000a900473ffffffffffffffffffffffffffffffffffffffff1673ffffffffffffffffffffffffffffffffffffffff1673ffffffffffffffffffffffffffffffffffffffff168152602001600282015481526020016003820160009054906101000a900473ffffffffffffffffffffffffffffffffffffffff1673ffffffffffffffffffffffffffffffffffffffff1673ffffffffffffffffffffffffffffffffffffffff1681526020016004820160009054906101000a900473ffffffffffffffffffffffffffffffffffffffff1673ffffffffffffffffffffffffffffffffffffffff1673ffffffffffffffffffffffffffffffffffffffff168152602001600582015481526020016006820154815260200160078201548152505082848151811061124e5761124d6122f3565b5b60200260200101819052506001836112669190612225565b92505b80806112749061227b565b91505061105c565b508094505050505090565b6060600061129560006119dc565b90506000806000600190505b838111611316576005600082815260200190815260200160002060010160009054906101000a900460ff1680156112ee575042600560008381526020019081526020016000206006015411155b15611303576001836113009190612225565b92505b808061130e9061227b565b9150506112a1565b5060008267ffffffffffffffff811115611333576113326122c4565b5b60405190808252806020026020018201604052801561136c57816020015b6113596119ea565b8152602001906001900390816113515790505b5090506000600190505b848111611577576005600082815260200190815260200160002060010160009054906101000a900460ff1680156113c3575042600560008381526020019081526020016000206006015411155b15611564576005600082815260200190815260200160002060405180610120016040529081600082015481526020016001820160009054906101000a900460ff161515151581526020016001820160019054906101000a900473ffffffffffffffffffffffffffffffffffffffff1673ffffffffffffffffffffffffffffffffffffffff1673ffffffffffffffffffffffffffffffffffffffff168152602001600282015481526020016003820160009054906101000a900473ffffffffffffffffffffffffffffffffffffffff1673ffffffffffffffffffffffffffffffffffffffff1673ffffffffffffffffffffffffffffffffffffffff1681526020016004820160009054906101000a900473ffffffffffffffffffffffffffffffffffffffff1673ffffffffffffffffffffffffffffffffffffffff1673ffffffffffffffffffffffffffffffffffffffff1681526020016005820154815260200160068201548152602001600782015481525050828481518110611549576115486122f3565b5b60200260200101819052506001836115619190612225565b92505b808061156f9061227b565b915050611376565b508094505050505090565b60006005600083815260200190815260200160002090508060010160009054906101000a900460ff166115ea576040517f08c379a00000000000000000000000000000000000000000000000000000000081526004016115e19061236e565b60405180910390fd5b8060040160009054906101000a900473ffffffffffffffffffffffffffffffffffffffff1673ffffffffffffffffffffffffffffffffffffffff163373ffffffffffffffffffffffffffffffffffffffff16148061164c575080600601544210155b61168b576040517f08c379a000000000000000000000000000000000000000000000000000000000815260040161168290612400565b60405180910390fd5b60008160010160006101000a81548160ff02191690831515021790555060008160010160019054906101000a900473ffffffffffffffffffffffffffffffffffffffff1673ffffffffffffffffffffffffffffffffffffffff168260040160009054906101000a900473ffffffffffffffffffffffffffffffffffffffff168360030160009054906101000a900473ffffffffffffffffffffffffffffffffffffffff1684600201546040516024016117469392919061242f565b6040516020818303038152906040527fce2ac6bd000000000000000000000000000000000000000000000000000000007bffffffffffffffffffffffffffffffffffffffffffffffffffffffff19166020820180517bffffffffffffffffffffffffffffffffffffffffffffffffffffffff83818316178352505050506040516117d091906124e0565b6000604051808303816000865af19150503d806000811461180d576040519150601f19603f3d011682016040523d82523d6000602084013e611812565b606091505b5050905080611856576040517f08c379a000000000000000000000000000000000000000000000000000000000815260040161184d90612569565b60405180910390fd5b61186060026119c6565b600560008481526020019081526020016000206000808201600090556001820160006101000a81549060ff02191690556001820160016101000a81549073ffffffffffffffffffffffffffffffffffffffff021916905560028201600090556003820160006101000a81549073ffffffffffffffffffffffffffffffffffffffff02191690556004820160006101000a81549073ffffffffffffffffffffffffffffffffffffffff02191690556005820160009055600682016000905560078201600090555050505050565b600360009054906101000a900473ffffffffffffffffffffffffffffffffffffffff1673ffffffffffffffffffffffffffffffffffffffff163373ffffffffffffffffffffffffffffffffffffffff16146119bc576040517f08c379a00000000000000000000000000000000000000000000000000000000081526004016119b3906125fb565b60405180910390fd5b8060048190555050565b6001816000016000828254019250508190555050565b600081600001549050919050565b60405180610120016040528060008152602001600015158152602001600073ffffffffffffffffffffffffffffffffffffffff16815260200160008152602001600073ffffffffffffffffffffffffffffffffffffffff168152602001600073ffffffffffffffffffffffffffffffffffffffff1681526020016000815260200160008152602001600080191681525090565b600080fd5b600073ffffffffffffffffffffffffffffffffffffffff82169050919050565b6000611aad82611a82565b9050919050565b611abd81611aa2565b8114611ac857600080fd5b50565b600081359050611ada81611ab4565b92915050565b6000819050919050565b611af381611ae0565b8114611afe57600080fd5b50565b600081359050611b1081611aea565b92915050565b6000819050919050565b611b2981611b16565b8114611b3457600080fd5b50565b600081359050611b4681611b20565b92915050565b600080600080600060a08688031215611b6857611b67611a7d565b5b6000611b7688828901611acb565b9550506020611b8788828901611b01565b9450506040611b9888828901611b01565b9350506060611ba988828901611b01565b9250506080611bba88828901611b37565b9150509295509295909350565b60008060408385031215611bde57611bdd611a7d565b5b6000611bec85828601611acb565b9250506020611bfd85828601611b01565b9150509250929050565b600081519050919050565b600082825260208201905092915050565b6000819050602082019050919050565b611c3c81611ae0565b82525050565b60008115159050919050565b611c5781611c42565b82525050565b611c6681611aa2565b82525050565b6000611c7782611a82565b9050919050565b611c8781611c6c565b82525050565b611c9681611b16565b82525050565b61012082016000820151611cb36000850182611c33565b506020820151611cc66020850182611c4e565b506040820151611cd96040850182611c5d565b506060820151611cec6060850182611c33565b506080820151611cff6080850182611c7e565b5060a0820151611d1260a0850182611c5d565b5060c0820151611d2560c0850182611c33565b5060e0820151611d3860e0850182611c33565b50610100820151611d4d610100850182611c8d565b50505050565b6000611d5f8383611c9c565b6101208301905092915050565b6000602082019050919050565b6000611d8482611c07565b611d8e8185611c12565b9350611d9983611c23565b8060005b83811015611dca578151611db18882611d53565b9750611dbc83611d6c565b925050600181019050611d9d565b5085935050505092915050565b60006020820190508181036000830152611df18184611d79565b905092915050565b611e0281611ae0565b82525050565b6000602082019050611e1d6000830184611df9565b92915050565b600060208284031215611e3957611e38611a7d565b5b6000611e4784828501611b01565b91505092915050565b600082825260208201905092915050565b7f507265636f20646576652073657220616f206d656e6f7320646520312077656960008201527f2100000000000000000000000000000000000000000000000000000000000000602082015250565b6000611ebd602183611e50565b9150611ec882611e61565b604082019050919050565b60006020820190508181036000830152611eec81611eb0565b9050919050565b7f50616775652065786174616d656e74652061207461786120717565206f204d6160008201527f726b6574706c6163652065786967652100000000000000000000000000000000602082015250565b6000611f4f603083611e50565b9150611f5a82611ef3565b604082019050919050565b60006020820190508181036000830152611f7e81611f42565b9050919050565b611f8e81611aa2565b82525050565b6000606082019050611fa96000830186611f85565b611fb66020830185611f85565b611fc36040830184611df9565b949350505050565b611fd481611c42565b82525050565b611fe381611b16565b82525050565b600060c082019050611ffe6000830189611fcb565b61200b6020830188611f85565b6120186040830187611f85565b6120256060830186611df9565b6120326080830185611df9565b61203f60a0830184611fda565b979650505050505050565b7f4573746520746f6b656e206a61206573746120616c756761646f210000000000600082015250565b6000612080601b83611e50565b915061208b8261204a565b602082019050919050565b600060208201905081810360008301526120af81612073565b9050919050565b6000815190506120c581611ab4565b92915050565b6000602082840312156120e1576120e0611a7d565b5b60006120ef848285016120b6565b91505092915050565b7f546f6b656e206e616f20646973706f6e6976656c210000000000000000000000600082015250565b600061212e601583611e50565b9150612139826120f8565b602082019050919050565b6000602082019050818103600083015261215d81612121565b9050919050565b7f50616775652065786174616d656e7465206f2076616c6f7220646f20616c756760008201527f75656c2100000000000000000000000000000000000000000000000000000000602082015250565b60006121c0602483611e50565b91506121cb82612164565b604082019050919050565b600060208201905081810360008301526121ef816121b3565b9050919050565b7f4e487b7100000000000000000000000000000000000000000000000000000000600052601160045260246000fd5b600061223082611ae0565b915061223b83611ae0565b9250827fffffffffffffffffffffffffffffffffffffffffffffffffffffffffffffffff038211156122705761226f6121f6565b5b828201905092915050565b600061228682611ae0565b91507fffffffffffffffffffffffffffffffffffffffffffffffffffffffffffffffff8214156122b9576122b86121f6565b5b600182019050919050565b7f4e487b7100000000000000000000000000000000000000000000000000000000600052604160045260246000fd5b7f4e487b7100000000000000000000000000000000000000000000000000000000600052603260045260246000fd5b7f4573746520746f6b656e206e616f206573746120616c756761646f2100000000600082015250565b6000612358601c83611e50565b915061236382612322565b602082019050919050565b600060208201905081810360008301526123878161234b565b9050919050565b7f4573746520746f6b656e2061696e64612065737461206e6f20706572696f646f60008201527f20646520616c756775656c210000000000000000000000000000000000000000602082015250565b60006123ea602c83611e50565b91506123f58261238e565b604082019050919050565b60006020820190508181036000830152612419816123dd565b9050919050565b61242981611c6c565b82525050565b60006060820190506124446000830186611f85565b6124516020830185612420565b61245e6040830184611df9565b949350505050565b600081519050919050565b600081905092915050565b60005b8381101561249a57808201518184015260208101905061247f565b838111156124a9576000848401525b50505050565b60006124ba82612466565b6124c48185612471565b93506124d481856020860161247c565b80840191505092915050565b60006124ec82846124af565b915081905092915050565b7f4e616f20666f6920706f73736976656c207472616e736665726972206f204e4660008201527f5420646520766f6c74612070617261206f2076656e6465646f72210000000000602082015250565b6000612553603b83611e50565b915061255e826124f7565b604082019050919050565b6000602082019050818103600083015261258281612546565b9050919050565b7f4170656e6173206f206d61726b6574706c61636520706f6465207574696c697a60008201527f61722065737465206d65746f646f210000000000000000000000000000000000602082015250565b60006125e5602f83611e50565b91506125f082612589565b604082019050919050565b60006020820190508181036000830152612614816125d8565b905091905056fea264697066735822122014f558fe6fdb5ce898df225184f2640e3779c51fa6e8d5dff51d9961b5cfeba564736f6c634300080b0033",
  "immutableReferences": {},
  "source": "// SPDX-License-Identifier: MIT\npragma solidity ^0.8.3;\n\n// Padro ERC721\n//import \"https://github.com/OpenZeppelin/openzeppelin-contracts/contracts/token/ERC721/ERC721.sol\";\nimport \"../node_modules/@openzeppelin/contracts/token/ERC721/ERC721.sol\";\n// Contador para os IDs dos itens alugveis\n//import \"https://github.com/OpenZeppelin/openzeppelin-contracts/contracts/utils/Counters.sol\";\nimport \"../node_modules/@openzeppelin/contracts/utils/Counters.sol\";\n\n\n\ncontract Marketplace{\n    /*\n        Contrato contendo os atributos e mtodos\n        de um marketplace de NFTs alugveis.\n    */\n\n    // Importando utilizao do contador\n    using Counters for Counters.Counter;\n    // Contador para os IDs dos itens alugveis\n    Counters.Counter private _itemIds;\n    // Contador para a quantidade de itens alugados\n    Counters.Counter private _countItensAlugados;\n    // Contador para a quantidade de itens devolvidos aps o aluguel\n    Counters.Counter private _countItensDevolvidos;\n\n    // Endereo do dono do contrato\n    address payable donoContrato;\n    // Taxa cobrada pelo Marketplace para um vendedor\n    // colocar o seu item disponvel para aluguel\n    uint256  private taxaMarketplace;\n    \n    // Estrutura que mapeia um item alugvel\n    struct Item{\n        uint256 itemId; // Identificador do item\n        bool statusAlugado; // Status indicando se o item est alugado (true) ou no (false)\n        address contratoNFT; // Endereo do contrato que o NFT pertence\n        uint256 tokenId; // Identificador do NFT\n        address payable vendedor; // Endereo do vendedor responsvel pelo item\n        address locatario; // Endereo da pessoa que est alugando o item\n        uint256 preco; // Preo do aluguel\n        uint256 expiraEm; // Tempo de durao do aluguel\n        bytes32 descricao; // Descrio adicional do item\n    }\n\n    // Lista dos itens alugveis do marketplace\n    mapping(uint256 => Item) private listaItens;\n    \n    // Evento que ser disparado para retornar um item aps sua criao\n    event ItemCriado(\n        uint256 indexed itemId,\n        bool statusAlugado,\n        address indexed contratoNFT,\n        uint256 indexed tokenId,\n        address vendedor,\n        address locatario,\n        uint256 preco,\n        uint256 expiraEm,\n        bytes32 descricao\n    );\n\n    // Construtor que inicializa o dono do contrato\n    constructor(){\n        donoContrato = payable(msg.sender);\n        taxaMarketplace = 0.02 ether;\n    }\n\n    // Funo que retorna a taxa cobrada pelo marketplace\n    function getTaxaMarketplace() public view returns (uint256) {\n        return taxaMarketplace;\n    }\n\n    // Funo que altera a taxa cobrada pelo Marketplace\n    // (Apenas o dono do contrato pode utilizar esta funo)\n    function setTaxaMarketplace(uint256 _novaTaxa) external apenasDono{\n        taxaMarketplace = _novaTaxa;\n    }\n\n    // Funo que cria um novo item para ser alugado\n    function criaItemAlugavel(\n        address contratoNFT, uint256 tokenId,\n        uint256 preco, uint256 expiraEm, bytes32 descricao) public payable{\n        \n        require(preco > 0, \"Preco deve ser ao menos de 1 wei!\");\n        require(msg.value == taxaMarketplace, \"Pague exatamente a taxa que o Marketplace exige!\");\n\n        _itemIds.increment();\n        uint256 itemId = _itemIds.current();\n\n        listaItens[itemId] = Item(\n            itemId,\n            false,\n            address(contratoNFT),\n            tokenId,\n            payable(msg.sender),\n            address(0),\n            preco,\n            expiraEm,\n            descricao\n        );\n\n        IERC721(contratoNFT).transferFrom(msg.sender, address(this), tokenId);\n        donoContrato.transfer(taxaMarketplace);\n\n        emit ItemCriado(\n            itemId,\n            false,\n            contratoNFT,\n            tokenId,\n            msg.sender,\n            address(0),\n            preco,\n            expiraEm,\n            descricao\n        );\n    }\n\n    // Funo que aluga um item disponvel no marketplace\n    function alugarItem(address contratoNFT, uint256 itemId) public payable{\n        uint256 preco = listaItens[itemId].preco;\n        uint256 tokenId = listaItens[itemId].tokenId;\n\n        require(!listaItens[itemId].statusAlugado, \"Este token ja esta alugado!\");\n        require(IERC721(contratoNFT).ownerOf(tokenId) == address(this), \"Token nao disponivel!\");\n        require(msg.value == preco, \"Pague exatamente o valor do aluguel!\");\n        \n        listaItens[itemId].vendedor.transfer(msg.value);\n        IERC721(contratoNFT).transferFrom(address(this), msg.sender, tokenId);\n\n        listaItens[itemId].expiraEm = listaItens[itemId].expiraEm + block.timestamp;\n        listaItens[itemId].locatario = msg.sender;\n        listaItens[itemId].statusAlugado = true;\n        _countItensAlugados.increment();\n    }\n\n    // Funo que finaliza um aluguel aps o prazo de um item\n    // ou caso o locatrio desejar finalizar antes do prazo\n    function finalizaAluguel(uint256 itemId) external {\n        Item storage itemAlugado = listaItens[itemId];\n\n        require(itemAlugado.statusAlugado, \"Este token nao esta alugado!\");\n        require(msg.sender == itemAlugado.locatario || block.timestamp >= itemAlugado.expiraEm,\n                \"Este token ainda esta no periodo de aluguel!\");\n        \n        itemAlugado.statusAlugado = false;\n        \n        (bool sucessoTransferencia, ) = (itemAlugado.contratoNFT).call(\n            abi.encodeWithSignature(\n                \"transferirTokenExpirado(address,address,uint256)\",\n                itemAlugado.locatario,\n                itemAlugado.vendedor,\n                itemAlugado.tokenId\n            )\n        );\n        require(sucessoTransferencia, \"Nao foi possivel transferir o NFT de volta para o vendedor!\");\n\n        _countItensDevolvidos.increment();\n        delete listaItens[itemId];\n    }\n\n    // Funo que retorna a lista de NFTs disponveis para alugar\n    function getNFTsAlugaveis() public view returns (Item[] memory) {\n        uint256 qtdeItensTotal = _itemIds.current();\n        uint256 qtdeItensAlugaveis = 0;\n        uint256 indiceAtual = 0;\n\n        // Contabiliza a quantidade de NFTs totais disponveis\n        // para criar a lista de retorno\n        for (uint256 i = 1; i <= qtdeItensTotal; i++) {\n            if (listaItens[i].itemId != 0 && !listaItens[i].statusAlugado) {\n                qtdeItensAlugaveis += 1;\n            }\n        }\n\n        Item[] memory listaItensDisponiveis = new Item[](qtdeItensAlugaveis);\n\n        for (uint256 i = 1; i <= qtdeItensTotal; i++) {\n            if (listaItens[i].itemId != 0 && !listaItens[i].statusAlugado) {\n                listaItensDisponiveis[indiceAtual] = listaItens[i];\n                indiceAtual += 1;\n            }\n        }\n        return listaItensDisponiveis;\n    }\n\n    // Funo que retorna os NFTs alugveis de um vendedor\n    function getNFTsPorVendedor() public view returns (Item[] memory) {\n        uint256 qtdeItensTotal = _itemIds.current();\n        uint256 countItensVendedor = 0;\n        uint256 indiceAtual = 0;\n\n        // Contabiliza a quantidade de NFTs totais do vendedor\n        // para criar a lista de retorno\n        for (uint256 i = 1; i <= qtdeItensTotal; i++) {\n            if (listaItens[i].vendedor == msg.sender) {\n                countItensVendedor += 1;\n            }\n        }\n\n        Item[] memory listaItensVendedor = new Item[](countItensVendedor);\n\n        for (uint256 i = 1; i <= qtdeItensTotal; i++) {\n            if (listaItens[i].vendedor == msg.sender) {\n                listaItensVendedor[indiceAtual] = listaItens[i];\n                indiceAtual += 1;\n            }\n        }\n        return listaItensVendedor;\n    }\n\n    // Funo que retorna os NFTs alugados por um locatrio\n    function getNFTsPorLocatario() public view returns (Item[] memory) {\n        uint256 qtdeItensTotal = _itemIds.current();\n        uint256 countItensLocatario = 0;\n        uint256 indiceAtual = 0;\n\n        // Contabiliza a quantidade de NFTs totais do locatrio\n        // para criar a lista de retorno\n        for (uint256 i = 1; i <= qtdeItensTotal; i++) {\n            if (listaItens[i].locatario == msg.sender) {\n                countItensLocatario += 1;\n            }\n        }\n\n        Item[] memory listaItensLocatario = new Item[](countItensLocatario);\n\n        for (uint256 i = 1; i <= qtdeItensTotal; i++) {\n            if (listaItens[i].locatario == msg.sender) {\n                listaItensLocatario[indiceAtual] = listaItens[i];\n                indiceAtual += 1;\n            }\n        }\n        return listaItensLocatario;\n    }\n\n    // Funo que retorna os itens expirados, mas ainda alugados at o momento atual da pesquisa\n    function getNFTsExpiradosEAlugados() public view returns (Item[] memory) {\n        uint256 qtdeItensTotal = _itemIds.current();\n        uint256 countItensExpiradosEAlugados = 0;\n        uint256 indiceAtual = 0;\n\n        // Contabiliza a quantidade de NFTs totais expirados\n        // para criar a lista de retorno\n        for (uint256 i = 1; i <= qtdeItensTotal; i++) {\n            if (listaItens[i].statusAlugado && listaItens[i].expiraEm <= block.timestamp) {\n                countItensExpiradosEAlugados += 1;\n            }\n        }\n\n        Item[] memory listaItensExpirados = new Item[](countItensExpiradosEAlugados);\n\n        for (uint256 i = 1; i <= qtdeItensTotal; i++) {\n            if (listaItens[i].statusAlugado && listaItens[i].expiraEm <= block.timestamp) {\n                listaItensExpirados[indiceAtual] = listaItens[i];\n                indiceAtual += 1;\n            }\n        }\n        return listaItensExpirados;\n    }\n\n\n    // Modificador utilizado para especificar quais funes apenas o dono do marketplace pode chamar\n    modifier apenasDono() {\n        require(msg.sender == donoContrato, \"Apenas o marketplace pode utilizar este metodo!\");\n        _;\n    }\n}",
  "sourcePath": "/home/itallo/Documentos/Meus-Projetos/ERC721/TESTE_minicurso/contracts/Marketplace.sol",
  "compiler": {
    "name": "solc",
    "version": "0.8.11+commit.d7f03943.Emscripten.clang"
  },
  "schemaVersion": "3.4.4",
  "updatedAt": "2023-06-09T02:05:07.932Z",
  "networkType": "ethereum",
  "devdoc": {
    "kind": "dev",
    "methods": {},
    "version": 1
  },
  "userdoc": {
    "kind": "user",
    "methods": {},
    "version": 1
  }
}