{
  "contractName": "NFT",
  "abi": [
    {
      "inputs": [
        {
          "internalType": "address",
          "name": "enderecoContratoMarketplace",
          "type": "address"
        }
      ],
      "stateMutability": "nonpayable",
      "type": "constructor"
    },
    {
      "anonymous": false,
      "inputs": [
        {
          "indexed": true,
          "internalType": "address",
          "name": "owner",
          "type": "address"
        },
        {
          "indexed": true,
          "internalType": "address",
          "name": "approved",
          "type": "address"
        },
        {
          "indexed": true,
          "internalType": "uint256",
          "name": "tokenId",
          "type": "uint256"
        }
      ],
      "name": "Approval",
      "type": "event"
    },
    {
      "anonymous": false,
      "inputs": [
        {
          "indexed": true,
          "internalType": "address",
          "name": "owner",
          "type": "address"
        },
        {
          "indexed": true,
          "internalType": "address",
          "name": "operator",
          "type": "address"
        },
        {
          "indexed": false,
          "internalType": "bool",
          "name": "approved",
          "type": "bool"
        }
      ],
      "name": "ApprovalForAll",
      "type": "event"
    },
    {
      "anonymous": false,
      "inputs": [
        {
          "indexed": false,
          "internalType": "uint256",
          "name": "_fromTokenId",
          "type": "uint256"
        },
        {
          "indexed": false,
          "internalType": "uint256",
          "name": "_toTokenId",
          "type": "uint256"
        }
      ],
      "name": "BatchMetadataUpdate",
      "type": "event"
    },
    {
      "anonymous": false,
      "inputs": [
        {
          "indexed": false,
          "internalType": "uint256",
          "name": "_tokenId",
          "type": "uint256"
        }
      ],
      "name": "MetadataUpdate",
      "type": "event"
    },
    {
      "anonymous": false,
      "inputs": [
        {
          "indexed": false,
          "internalType": "uint256",
          "name": "token_id",
          "type": "uint256"
        }
      ],
      "name": "TokenId",
      "type": "event"
    },
    {
      "anonymous": false,
      "inputs": [
        {
          "indexed": true,
          "internalType": "address",
          "name": "from",
          "type": "address"
        },
        {
          "indexed": true,
          "internalType": "address",
          "name": "to",
          "type": "address"
        },
        {
          "indexed": true,
          "internalType": "uint256",
          "name": "tokenId",
          "type": "uint256"
        }
      ],
      "name": "Transfer",
      "type": "event"
    },
    {
      "inputs": [
        {
          "internalType": "address",
          "name": "to",
          "type": "address"
        },
        {
          "internalType": "uint256",
          "name": "tokenId",
          "type": "uint256"
        }
      ],
      "name": "approve",
      "outputs": [],
      "stateMutability": "nonpayable",
      "type": "function"
    },
    {
      "inputs": [
        {
          "internalType": "address",
          "name": "owner",
          "type": "address"
        }
      ],
      "name": "balanceOf",
      "outputs": [
        {
          "internalType": "uint256",
          "name": "",
          "type": "uint256"
        }
      ],
      "stateMutability": "view",
      "type": "function"
    },
    {
      "inputs": [
        {
          "internalType": "uint256",
          "name": "tokenId",
          "type": "uint256"
        }
      ],
      "name": "getApproved",
      "outputs": [
        {
          "internalType": "address",
          "name": "",
          "type": "address"
        }
      ],
      "stateMutability": "view",
      "type": "function"
    },
    {
      "inputs": [
        {
          "internalType": "address",
          "name": "owner",
          "type": "address"
        },
        {
          "internalType": "address",
          "name": "operator",
          "type": "address"
        }
      ],
      "name": "isApprovedForAll",
      "outputs": [
        {
          "internalType": "bool",
          "name": "",
          "type": "bool"
        }
      ],
      "stateMutability": "view",
      "type": "function"
    },
    {
      "inputs": [],
      "name": "name",
      "outputs": [
        {
          "internalType": "string",
          "name": "",
          "type": "string"
        }
      ],
      "stateMutability": "view",
      "type": "function"
    },
    {
      "inputs": [
        {
          "internalType": "uint256",
          "name": "tokenId",
          "type": "uint256"
        }
      ],
      "name": "ownerOf",
      "outputs": [
        {
          "internalType": "address",
          "name": "",
          "type": "address"
        }
      ],
      "stateMutability": "view",
      "type": "function"
    },
    {
      "inputs": [
        {
          "internalType": "address",
          "name": "from",
          "type": "address"
        },
        {
          "internalType": "address",
          "name": "to",
          "type": "address"
        },
        {
          "internalType": "uint256",
          "name": "tokenId",
          "type": "uint256"
        }
      ],
      "name": "safeTransferFrom",
      "outputs": [],
      "stateMutability": "nonpayable",
      "type": "function"
    },
    {
      "inputs": [
        {
          "internalType": "address",
          "name": "from",
          "type": "address"
        },
        {
          "internalType": "address",
          "name": "to",
          "type": "address"
        },
        {
          "internalType": "uint256",
          "name": "tokenId",
          "type": "uint256"
        },
        {
          "internalType": "bytes",
          "name": "data",
          "type": "bytes"
        }
      ],
      "name": "safeTransferFrom",
      "outputs": [],
      "stateMutability": "nonpayable",
      "type": "function"
    },
    {
      "inputs": [
        {
          "internalType": "address",
          "name": "operator",
          "type": "address"
        },
        {
          "internalType": "bool",
          "name": "approved",
          "type": "bool"
        }
      ],
      "name": "setApprovalForAll",
      "outputs": [],
      "stateMutability": "nonpayable",
      "type": "function"
    },
    {
      "inputs": [
        {
          "internalType": "bytes4",
          "name": "interfaceId",
          "type": "bytes4"
        }
      ],
      "name": "supportsInterface",
      "outputs": [
        {
          "internalType": "bool",
          "name": "",
          "type": "bool"
        }
      ],
      "stateMutability": "view",
      "type": "function"
    },
    {
      "inputs": [],
      "name": "symbol",
      "outputs": [
        {
          "internalType": "string",
          "name": "",
          "type": "string"
        }
      ],
      "stateMutability": "view",
      "type": "function"
    },
    {
      "inputs": [
        {
          "internalType": "uint256",
          "name": "tokenId",
          "type": "uint256"
        }
      ],
      "name": "tokenURI",
      "outputs": [
        {
          "internalType": "string",
          "name": "",
          "type": "string"
        }
      ],
      "stateMutability": "view",
      "type": "function"
    },
    {
      "inputs": [
        {
          "internalType": "address",
          "name": "from",
          "type": "address"
        },
        {
          "internalType": "address",
          "name": "to",
          "type": "address"
        },
        {
          "internalType": "uint256",
          "name": "tokenId",
          "type": "uint256"
        }
      ],
      "name": "transferFrom",
      "outputs": [],
      "stateMutability": "nonpayable",
      "type": "function"
    },
    {
      "inputs": [
        {
          "internalType": "string",
          "name": "tokenURI",
          "type": "string"
        }
      ],
      "name": "criarNovoToken",
      "outputs": [],
      "stateMutability": "nonpayable",
      "type": "function"
    },
    {
      "inputs": [
        {
          "internalType": "address",
          "name": "de",
          "type": "address"
        },
        {
          "internalType": "address",
          "name": "para",
          "type": "address"
        },
        {
          "internalType": "uint256",
          "name": "tokenId",
          "type": "uint256"
        }
      ],
      "name": "transferirTokenExpirado",
      "outputs": [],
      "stateMutability": "nonpayable",
      "type": "function"
    }
  ],
  "bytecode": "0x60806040523480156200001157600080fd5b5060405162002d9538038062002d95833981810160405281019062000037919062000239565b6040518060400160405280600b81526020017f4e4654416c75676176656c0000000000000000000000000000000000000000008152506040518060400160405280600381526020017f41465400000000000000000000000000000000000000000000000000000000008152508160009080519060200190620000bb9291906200011f565b508060019080519060200190620000d49291906200011f565b50505080600860006101000a81548173ffffffffffffffffffffffffffffffffffffffff021916908373ffffffffffffffffffffffffffffffffffffffff16021790555050620002d0565b8280546200012d906200029a565b90600052602060002090601f0160209004810192826200015157600085556200019d565b82601f106200016c57805160ff19168380011785556200019d565b828001600101855582156200019d579182015b828111156200019c5782518255916020019190600101906200017f565b5b509050620001ac9190620001b0565b5090565b5b80821115620001cb576000816000905550600101620001b1565b5090565b600080fd5b600073ffffffffffffffffffffffffffffffffffffffff82169050919050565b60006200020182620001d4565b9050919050565b6200021381620001f4565b81146200021f57600080fd5b50565b600081519050620002338162000208565b92915050565b600060208284031215620002525762000251620001cf565b5b6000620002628482850162000222565b91505092915050565b7f4e487b7100000000000000000000000000000000000000000000000000000000600052602260045260246000fd5b60006002820490506001821680620002b357607f821691505b60208210811415620002ca57620002c96200026b565b5b50919050565b612ab580620002e06000396000f3fe608060405234801561001057600080fd5b50600436106100f55760003560e01c80636352211e11610097578063b88d4fde11610066578063b88d4fde14610282578063c87b56dd1461029e578063ce2ac6bd146102ce578063e985e9c5146102ea576100f5565b80636352211e146101e857806370a082311461021857806395d89b4114610248578063a22cb46514610266576100f5565b8063095ea7b3116100d3578063095ea7b3146101785780630e20d6601461019457806323b872dd146101b057806342842e0e146101cc576100f5565b806301ffc9a7146100fa57806306fdde031461012a578063081812fc14610148575b600080fd5b610114600480360381019061010f9190611b99565b61031a565b6040516101219190611be1565b60405180910390f35b61013261037b565b60405161013f9190611c95565b60405180910390f35b610162600480360381019061015d9190611ced565b61040d565b60405161016f9190611d5b565b60405180910390f35b610192600480360381019061018d9190611da2565b610453565b005b6101ae60048036038101906101a99190611f17565b61056b565b005b6101ca60048036038101906101c59190611f60565b6105fe565b005b6101e660048036038101906101e19190611f60565b61065e565b005b61020260048036038101906101fd9190611ced565b61067e565b60405161020f9190611d5b565b60405180910390f35b610232600480360381019061022d9190611fb3565b610705565b60405161023f9190611fef565b60405180910390f35b6102506107bd565b60405161025d9190611c95565b60405180910390f35b610280600480360381019061027b9190612036565b61084f565b005b61029c60048036038101906102979190612117565b610865565b005b6102b860048036038101906102b39190611ced565b6108c7565b6040516102c59190611c95565b60405180910390f35b6102e860048036038101906102e39190611f60565b6109da565b005b61030460048036038101906102ff919061219a565b610a7a565b6040516103119190611be1565b60405180910390f35b6000634906490660e01b7bffffffffffffffffffffffffffffffffffffffffffffffffffffffff1916827bffffffffffffffffffffffffffffffffffffffffffffffffffffffff19161480610374575061037382610b0e565b5b9050919050565b60606000805461038a90612209565b80601f01602080910402602001604051908101604052809291908181526020018280546103b690612209565b80156104035780601f106103d857610100808354040283529160200191610403565b820191906000526020600020905b8154815290600101906020018083116103e657829003601f168201915b5050505050905090565b600061041882610bf0565b6004600083815260200190815260200160002060009054906101000a900473ffffffffffffffffffffffffffffffffffffffff169050919050565b600061045e8261067e565b90508073ffffffffffffffffffffffffffffffffffffffff168373ffffffffffffffffffffffffffffffffffffffff1614156104cf576040517f08c379a00000000000000000000000000000000000000000000000000000000081526004016104c6906122ad565b60405180910390fd5b8073ffffffffffffffffffffffffffffffffffffffff166104ee610c3b565b73ffffffffffffffffffffffffffffffffffffffff16148061051d575061051c81610517610c3b565b610a7a565b5b61055c576040517f08c379a00000000000000000000000000000000000000000000000000000000081526004016105539061233f565b60405180910390fd5b6105668383610c43565b505050565b6105756007610cfc565b60006105816007610d12565b905061058d3382610d20565b6105978183610f3e565b6105c3600860009054906101000a900473ffffffffffffffffffffffffffffffffffffffff1682610453565b7fa4e8e12e12124dbefe84fada6e584fcfaf4862f3b8284a8174f89be901ec4d7d816040516105f29190611fef565b60405180910390a15050565b61060f610609610c3b565b82610fe9565b61064e576040517f08c379a0000000000000000000000000000000000000000000000000000000008152600401610645906123d1565b60405180910390fd5b61065983838361107e565b505050565b61067983838360405180602001604052806000815250610865565b505050565b60008061068a83611378565b9050600073ffffffffffffffffffffffffffffffffffffffff168173ffffffffffffffffffffffffffffffffffffffff1614156106fc576040517f08c379a00000000000000000000000000000000000000000000000000000000081526004016106f39061243d565b60405180910390fd5b80915050919050565b60008073ffffffffffffffffffffffffffffffffffffffff168273ffffffffffffffffffffffffffffffffffffffff161415610776576040517f08c379a000000000000000000000000000000000000000000000000000000000815260040161076d906124cf565b60405180910390fd5b600360008373ffffffffffffffffffffffffffffffffffffffff1673ffffffffffffffffffffffffffffffffffffffff168152602001908152602001600020549050919050565b6060600180546107cc90612209565b80601f01602080910402602001604051908101604052809291908181526020018280546107f890612209565b80156108455780601f1061081a57610100808354040283529160200191610845565b820191906000526020600020905b81548152906001019060200180831161082857829003601f168201915b5050505050905090565b61086161085a610c3b565b83836113b5565b5050565b610876610870610c3b565b83610fe9565b6108b5576040517f08c379a00000000000000000000000000000000000000000000000000000000081526004016108ac906123d1565b60405180910390fd5b6108c184848484611522565b50505050565b60606108d282610bf0565b60006006600084815260200190815260200160002080546108f290612209565b80601f016020809104026020016040519081016040528092919081815260200182805461091e90612209565b801561096b5780601f106109405761010080835404028352916020019161096b565b820191906000526020600020905b81548152906001019060200180831161094e57829003601f168201915b50505050509050600061097c61157e565b90506000815114156109925781925050506109d5565b6000825111156109c75780826040516020016109af92919061252b565b604051602081830303815290604052925050506109d5565b6109d084611595565b925050505b919050565b600860009054906101000a900473ffffffffffffffffffffffffffffffffffffffff1673ffffffffffffffffffffffffffffffffffffffff163373ffffffffffffffffffffffffffffffffffffffff1614610a6a576040517f08c379a0000000000000000000000000000000000000000000000000000000008152600401610a61906125c1565b60405180910390fd5b610a7583838361107e565b505050565b6000600560008473ffffffffffffffffffffffffffffffffffffffff1673ffffffffffffffffffffffffffffffffffffffff16815260200190815260200160002060008373ffffffffffffffffffffffffffffffffffffffff1673ffffffffffffffffffffffffffffffffffffffff16815260200190815260200160002060009054906101000a900460ff16905092915050565b60007f80ac58cd000000000000000000000000000000000000000000000000000000007bffffffffffffffffffffffffffffffffffffffffffffffffffffffff1916827bffffffffffffffffffffffffffffffffffffffffffffffffffffffff19161480610bd957507f5b5e139f000000000000000000000000000000000000000000000000000000007bffffffffffffffffffffffffffffffffffffffffffffffffffffffff1916827bffffffffffffffffffffffffffffffffffffffffffffffffffffffff1916145b80610be95750610be8826115fd565b5b9050919050565b610bf981611667565b610c38576040517f08c379a0000000000000000000000000000000000000000000000000000000008152600401610c2f9061243d565b60405180910390fd5b50565b600033905090565b816004600083815260200190815260200160002060006101000a81548173ffffffffffffffffffffffffffffffffffffffff021916908373ffffffffffffffffffffffffffffffffffffffff160217905550808273ffffffffffffffffffffffffffffffffffffffff16610cb68361067e565b73ffffffffffffffffffffffffffffffffffffffff167f8c5be1e5ebec7d5bd14f71427d1e84f3dd0314c0f7b2291e5b200ac8c7c3b92560405160405180910390a45050565b6001816000016000828254019250508190555050565b600081600001549050919050565b600073ffffffffffffffffffffffffffffffffffffffff168273ffffffffffffffffffffffffffffffffffffffff161415610d90576040517f08c379a0000000000000000000000000000000000000000000000000000000008152600401610d879061262d565b60405180910390fd5b610d9981611667565b15610dd9576040517f08c379a0000000000000000000000000000000000000000000000000000000008152600401610dd090612699565b60405180910390fd5b610de76000838360016116a8565b610df081611667565b15610e30576040517f08c379a0000000000000000000000000000000000000000000000000000000008152600401610e2790612699565b60405180910390fd5b6001600360008473ffffffffffffffffffffffffffffffffffffffff1673ffffffffffffffffffffffffffffffffffffffff16815260200190815260200160002060008282540192505081905550816002600083815260200190815260200160002060006101000a81548173ffffffffffffffffffffffffffffffffffffffff021916908373ffffffffffffffffffffffffffffffffffffffff160217905550808273ffffffffffffffffffffffffffffffffffffffff16600073ffffffffffffffffffffffffffffffffffffffff167fddf252ad1be2c89b69c2b068fc378daa952ba7f163c4a11628f55a4df523b3ef60405160405180910390a4610f3a6000838360016116ae565b5050565b610f4782611667565b610f86576040517f08c379a0000000000000000000000000000000000000000000000000000000008152600401610f7d9061272b565b60405180910390fd5b80600660008481526020019081526020016000209080519060200190610fad929190611a8a565b507ff8e1a15aba9398e019f0b49df1a4fde98ee17ae345cb5f6b5e2c27f5033e8ce782604051610fdd9190611fef565b60405180910390a15050565b600080610ff58361067e565b90508073ffffffffffffffffffffffffffffffffffffffff168473ffffffffffffffffffffffffffffffffffffffff16148061103757506110368185610a7a565b5b8061107557508373ffffffffffffffffffffffffffffffffffffffff1661105d8461040d565b73ffffffffffffffffffffffffffffffffffffffff16145b91505092915050565b8273ffffffffffffffffffffffffffffffffffffffff1661109e8261067e565b73ffffffffffffffffffffffffffffffffffffffff16146110f4576040517f08c379a00000000000000000000000000000000000000000000000000000000081526004016110eb906127bd565b60405180910390fd5b600073ffffffffffffffffffffffffffffffffffffffff168273ffffffffffffffffffffffffffffffffffffffff161415611164576040517f08c379a000000000000000000000000000000000000000000000000000000000815260040161115b9061284f565b60405180910390fd5b61117183838360016116a8565b8273ffffffffffffffffffffffffffffffffffffffff166111918261067e565b73ffffffffffffffffffffffffffffffffffffffff16146111e7576040517f08c379a00000000000000000000000000000000000000000000000000000000081526004016111de906127bd565b60405180910390fd5b6004600082815260200190815260200160002060006101000a81549073ffffffffffffffffffffffffffffffffffffffff02191690556001600360008573ffffffffffffffffffffffffffffffffffffffff1673ffffffffffffffffffffffffffffffffffffffff168152602001908152602001600020600082825403925050819055506001600360008473ffffffffffffffffffffffffffffffffffffffff1673ffffffffffffffffffffffffffffffffffffffff16815260200190815260200160002060008282540192505081905550816002600083815260200190815260200160002060006101000a81548173ffffffffffffffffffffffffffffffffffffffff021916908373ffffffffffffffffffffffffffffffffffffffff160217905550808273ffffffffffffffffffffffffffffffffffffffff168473ffffffffffffffffffffffffffffffffffffffff167fddf252ad1be2c89b69c2b068fc378daa952ba7f163c4a11628f55a4df523b3ef60405160405180910390a461137383838360016116ae565b505050565b60006002600083815260200190815260200160002060009054906101000a900473ffffffffffffffffffffffffffffffffffffffff169050919050565b8173ffffffffffffffffffffffffffffffffffffffff168373ffffffffffffffffffffffffffffffffffffffff161415611424576040517f08c379a000000000000000000000000000000000000000000000000000000000815260040161141b906128bb565b60405180910390fd5b80600560008573ffffffffffffffffffffffffffffffffffffffff1673ffffffffffffffffffffffffffffffffffffffff16815260200190815260200160002060008473ffffffffffffffffffffffffffffffffffffffff1673ffffffffffffffffffffffffffffffffffffffff16815260200190815260200160002060006101000a81548160ff0219169083151502179055508173ffffffffffffffffffffffffffffffffffffffff168373ffffffffffffffffffffffffffffffffffffffff167f17307eab39ab6107e8899845ad3d59bd9653f200f220920489ca2b5937696c31836040516115159190611be1565b60405180910390a3505050565b61152d84848461107e565b611539848484846116b4565b611578576040517f08c379a000000000000000000000000000000000000000000000000000000000815260040161156f9061294d565b60405180910390fd5b50505050565b606060405180602001604052806000815250905090565b60606115a082610bf0565b60006115aa61157e565b905060008151116115ca57604051806020016040528060008152506115f5565b806115d48461183c565b6040516020016115e592919061252b565b6040516020818303038152906040525b915050919050565b60007f01ffc9a7000000000000000000000000000000000000000000000000000000007bffffffffffffffffffffffffffffffffffffffffffffffffffffffff1916827bffffffffffffffffffffffffffffffffffffffffffffffffffffffff1916149050919050565b60008073ffffffffffffffffffffffffffffffffffffffff1661168983611378565b73ffffffffffffffffffffffffffffffffffffffff1614159050919050565b50505050565b50505050565b60006116d58473ffffffffffffffffffffffffffffffffffffffff16611914565b1561182f578373ffffffffffffffffffffffffffffffffffffffff1663150b7a026116fe610c3b565b8786866040518563ffffffff1660e01b815260040161172094939291906129c2565b6020604051808303816000875af192505050801561175c57506040513d601f19601f820116820180604052508101906117599190612a23565b60015b6117df573d806000811461178c576040519150601f19603f3d011682016040523d82523d6000602084013e611791565b606091505b506000815114156117d7576040517f08c379a00000000000000000000000000000000000000000000000000000000081526004016117ce9061294d565b60405180910390fd5b805181602001fd5b63150b7a0260e01b7bffffffffffffffffffffffffffffffffffffffffffffffffffffffff1916817bffffffffffffffffffffffffffffffffffffffffffffffffffffffff191614915050611834565b600190505b949350505050565b60606000600161184b84611937565b01905060008167ffffffffffffffff81111561186a57611869611dec565b5b6040519080825280601f01601f19166020018201604052801561189c5781602001600182028036833780820191505090505b509050600082602001820190505b600115611909578080600190039150507f3031323334353637383961626364656600000000000000000000000000000000600a86061a8153600a85816118f3576118f2612a50565b5b049450600085141561190457611909565b6118aa565b819350505050919050565b6000808273ffffffffffffffffffffffffffffffffffffffff163b119050919050565b600080600090507a184f03e93ff9f4daa797ed6e38ed64bf6a1f0100000000000000008310611995577a184f03e93ff9f4daa797ed6e38ed64bf6a1f010000000000000000838161198b5761198a612a50565b5b0492506040810190505b6d04ee2d6d415b85acef810000000083106119d2576d04ee2d6d415b85acef810000000083816119c8576119c7612a50565b5b0492506020810190505b662386f26fc100008310611a0157662386f26fc1000083816119f7576119f6612a50565b5b0492506010810190505b6305f5e1008310611a2a576305f5e1008381611a2057611a1f612a50565b5b0492506008810190505b6127108310611a4f576127108381611a4557611a44612a50565b5b0492506004810190505b60648310611a725760648381611a6857611a67612a50565b5b0492506002810190505b600a8310611a81576001810190505b80915050919050565b828054611a9690612209565b90600052602060002090601f016020900481019282611ab85760008555611aff565b82601f10611ad157805160ff1916838001178555611aff565b82800160010185558215611aff579182015b82811115611afe578251825591602001919060010190611ae3565b5b509050611b0c9190611b10565b5090565b5b80821115611b29576000816000905550600101611b11565b5090565b6000604051905090565b600080fd5b600080fd5b60007fffffffff0000000000000000000000000000000000000000000000000000000082169050919050565b611b7681611b41565b8114611b8157600080fd5b50565b600081359050611b9381611b6d565b92915050565b600060208284031215611baf57611bae611b37565b5b6000611bbd84828501611b84565b91505092915050565b60008115159050919050565b611bdb81611bc6565b82525050565b6000602082019050611bf66000830184611bd2565b92915050565b600081519050919050565b600082825260208201905092915050565b60005b83811015611c36578082015181840152602081019050611c1b565b83811115611c45576000848401525b50505050565b6000601f19601f8301169050919050565b6000611c6782611bfc565b611c718185611c07565b9350611c81818560208601611c18565b611c8a81611c4b565b840191505092915050565b60006020820190508181036000830152611caf8184611c5c565b905092915050565b6000819050919050565b611cca81611cb7565b8114611cd557600080fd5b50565b600081359050611ce781611cc1565b92915050565b600060208284031215611d0357611d02611b37565b5b6000611d1184828501611cd8565b91505092915050565b600073ffffffffffffffffffffffffffffffffffffffff82169050919050565b6000611d4582611d1a565b9050919050565b611d5581611d3a565b82525050565b6000602082019050611d706000830184611d4c565b92915050565b611d7f81611d3a565b8114611d8a57600080fd5b50565b600081359050611d9c81611d76565b92915050565b60008060408385031215611db957611db8611b37565b5b6000611dc785828601611d8d565b9250506020611dd885828601611cd8565b9150509250929050565b600080fd5b600080fd5b7f4e487b7100000000000000000000000000000000000000000000000000000000600052604160045260246000fd5b611e2482611c4b565b810181811067ffffffffffffffff82111715611e4357611e42611dec565b5b80604052505050565b6000611e56611b2d565b9050611e628282611e1b565b919050565b600067ffffffffffffffff821115611e8257611e81611dec565b5b611e8b82611c4b565b9050602081019050919050565b82818337600083830152505050565b6000611eba611eb584611e67565b611e4c565b905082815260208101848484011115611ed657611ed5611de7565b5b611ee1848285611e98565b509392505050565b600082601f830112611efe57611efd611de2565b5b8135611f0e848260208601611ea7565b91505092915050565b600060208284031215611f2d57611f2c611b37565b5b600082013567ffffffffffffffff811115611f4b57611f4a611b3c565b5b611f5784828501611ee9565b91505092915050565b600080600060608486031215611f7957611f78611b37565b5b6000611f8786828701611d8d565b9350506020611f9886828701611d8d565b9250506040611fa986828701611cd8565b9150509250925092565b600060208284031215611fc957611fc8611b37565b5b6000611fd784828501611d8d565b91505092915050565b611fe981611cb7565b82525050565b60006020820190506120046000830184611fe0565b92915050565b61201381611bc6565b811461201e57600080fd5b50565b6000813590506120308161200a565b92915050565b6000806040838503121561204d5761204c611b37565b5b600061205b85828601611d8d565b925050602061206c85828601612021565b9150509250929050565b600067ffffffffffffffff82111561209157612090611dec565b5b61209a82611c4b565b9050602081019050919050565b60006120ba6120b584612076565b611e4c565b9050828152602081018484840111156120d6576120d5611de7565b5b6120e1848285611e98565b509392505050565b600082601f8301126120fe576120fd611de2565b5b813561210e8482602086016120a7565b91505092915050565b6000806000806080858703121561213157612130611b37565b5b600061213f87828801611d8d565b945050602061215087828801611d8d565b935050604061216187828801611cd8565b925050606085013567ffffffffffffffff81111561218257612181611b3c565b5b61218e878288016120e9565b91505092959194509250565b600080604083850312156121b1576121b0611b37565b5b60006121bf85828601611d8d565b92505060206121d085828601611d8d565b9150509250929050565b7f4e487b7100000000000000000000000000000000000000000000000000000000600052602260045260246000fd5b6000600282049050600182168061222157607f821691505b60208210811415612235576122346121da565b5b50919050565b7f4552433732313a20617070726f76616c20746f2063757272656e74206f776e6560008201527f7200000000000000000000000000000000000000000000000000000000000000602082015250565b6000612297602183611c07565b91506122a28261223b565b604082019050919050565b600060208201905081810360008301526122c68161228a565b9050919050565b7f4552433732313a20617070726f76652063616c6c6572206973206e6f7420746f60008201527f6b656e206f776e6572206f7220617070726f76656420666f7220616c6c000000602082015250565b6000612329603d83611c07565b9150612334826122cd565b604082019050919050565b600060208201905081810360008301526123588161231c565b9050919050565b7f4552433732313a2063616c6c6572206973206e6f7420746f6b656e206f776e6560008201527f72206f7220617070726f76656400000000000000000000000000000000000000602082015250565b60006123bb602d83611c07565b91506123c68261235f565b604082019050919050565b600060208201905081810360008301526123ea816123ae565b9050919050565b7f4552433732313a20696e76616c696420746f6b656e2049440000000000000000600082015250565b6000612427601883611c07565b9150612432826123f1565b602082019050919050565b600060208201905081810360008301526124568161241a565b9050919050565b7f4552433732313a2061646472657373207a65726f206973206e6f74206120766160008201527f6c6964206f776e65720000000000000000000000000000000000000000000000602082015250565b60006124b9602983611c07565b91506124c48261245d565b604082019050919050565b600060208201905081810360008301526124e8816124ac565b9050919050565b600081905092915050565b600061250582611bfc565b61250f81856124ef565b935061251f818560208601611c18565b80840191505092915050565b600061253782856124fa565b915061254382846124fa565b91508190509392505050565b7f4170656e6173206f206d61726b6574706c61636520706f6465207574696c697a60008201527f61722065737365206d65746f646f210000000000000000000000000000000000602082015250565b60006125ab602f83611c07565b91506125b68261254f565b604082019050919050565b600060208201905081810360008301526125da8161259e565b9050919050565b7f4552433732313a206d696e7420746f20746865207a65726f2061646472657373600082015250565b6000612617602083611c07565b9150612622826125e1565b602082019050919050565b600060208201905081810360008301526126468161260a565b9050919050565b7f4552433732313a20746f6b656e20616c7265616479206d696e74656400000000600082015250565b6000612683601c83611c07565b915061268e8261264d565b602082019050919050565b600060208201905081810360008301526126b281612676565b9050919050565b7f45524337323155524953746f726167653a2055524920736574206f66206e6f6e60008201527f6578697374656e7420746f6b656e000000000000000000000000000000000000602082015250565b6000612715602e83611c07565b9150612720826126b9565b604082019050919050565b6000602082019050818103600083015261274481612708565b9050919050565b7f4552433732313a207472616e736665722066726f6d20696e636f72726563742060008201527f6f776e6572000000000000000000000000000000000000000000000000000000602082015250565b60006127a7602583611c07565b91506127b28261274b565b604082019050919050565b600060208201905081810360008301526127d68161279a565b9050919050565b7f4552433732313a207472616e7366657220746f20746865207a65726f2061646460008201527f7265737300000000000000000000000000000000000000000000000000000000602082015250565b6000612839602483611c07565b9150612844826127dd565b604082019050919050565b600060208201905081810360008301526128688161282c565b9050919050565b7f4552433732313a20617070726f766520746f2063616c6c657200000000000000600082015250565b60006128a5601983611c07565b91506128b08261286f565b602082019050919050565b600060208201905081810360008301526128d481612898565b9050919050565b7f4552433732313a207472616e7366657220746f206e6f6e20455243373231526560008201527f63656976657220696d706c656d656e7465720000000000000000000000000000602082015250565b6000612937603283611c07565b9150612942826128db565b604082019050919050565b600060208201905081810360008301526129668161292a565b9050919050565b600081519050919050565b600082825260208201905092915050565b60006129948261296d565b61299e8185612978565b93506129ae818560208601611c18565b6129b781611c4b565b840191505092915050565b60006080820190506129d76000830187611d4c565b6129e46020830186611d4c565b6129f16040830185611fe0565b8181036060830152612a038184612989565b905095945050505050565b600081519050612a1d81611b6d565b92915050565b600060208284031215612a3957612a38611b37565b5b6000612a4784828501612a0e565b91505092915050565b7f4e487b7100000000000000000000000000000000000000000000000000000000600052601260045260246000fdfea26469706673582212201b9bdaf11ba8cf8ca19d33254cef9e436f8fe3f2fd78c4f011254803e96be2af64736f6c634300080b0033",
  "immutableReferences": {},
  "source": "// SPDX-License-Identifier: MIT\npragma solidity ^0.8.3;\n\n// Padres ERC721\n// import \"https://github.com/OpenZeppelin/openzeppelin-contracts/contracts/token/ERC721/ERC721.sol\";\nimport \"../node_modules/@openzeppelin/contracts/token/ERC721/ERC721.sol\";\n//import \"https://github.com/OpenZeppelin/openzeppelin-contracts/contracts1/token/ERC721/extensions/ERC721URIStorage.sol\";\nimport \"../node_modules/@openzeppelin/contracts/token/ERC721/extensions/ERC721URIStorage.sol\";\n// Contador para os IDs dos Tokens\n// import \"https://github.com/OpenZeppelin/openzeppelin-contracts/contracts/utils/Counters.sol\";\nimport \"../node_modules/@openzeppelin/contracts/utils/Counters.sol\";\n\n\ncontract NFT is ERC721URIStorage {\n    /*\n        Contrato contendo os atributos e mtodos\n        para criar e manipular um Token No-Fungvel.\n    */\n\n    // Importando utilizao do contador\n    using Counters for Counters.Counter;\n    // Contador para os IDs dos Tokens\n    Counters.Counter private _tokenIds;\n\n    // Endereo do contrato do marketplace de aluguel\n    // Usado para verificar se quem chama as funes  de fato o marketplace\n    address marketplace;\n\n    // Evento para retornar o ID do Token aps sua criao\n    event TokenId(uint256 token_id);\n\n    // Construtor inicializa o endereo do contrato de aluguel\n    constructor(address enderecoContratoMarketplace) ERC721(\"NFTAlugavel\", \"AFT\") {\n        marketplace = enderecoContratoMarketplace;\n    }\n\n    // Funo que cria um novo AFT\n    function criarNovoToken(string memory tokenURI) public {\n        _tokenIds.increment();\n        uint256 novoId = _tokenIds.current();\n        \n        // _mint(msg.sender, newItemId);\n        _mint(msg.sender, novoId);\n        _setTokenURI(novoId, tokenURI);\n        approve(marketplace, novoId);\n\n        emit TokenId(novoId);\n    }\n\n    // Funo que transfere um AFT do dono para o comprador\n    function transferirTokenExpirado(address de, address para, uint256 tokenId) external apenasMarketplace {\n        _transfer(de, para, tokenId);\n    }\n    \n    // Modificador utilizado para indicar quais funes apenas o Marketplace pode chamar\n    modifier apenasMarketplace(){\n        require(msg.sender == marketplace, \"Apenas o marketplace pode utilizar esse metodo!\");\n        _;\n    }\n}",
  "sourcePath": "/home/itallo/Documentos/Meus-Projetos/ERC721/TESTE_minicurso/contracts/NFT.sol",
  "compiler": {
    "name": "solc",
    "version": "0.8.11+commit.d7f03943.Emscripten.clang"
  },
  "schemaVersion": "3.4.4",
  "updatedAt": "2023-06-07T13:59:04.259Z",
  "devdoc": {
    "kind": "dev",
    "methods": {
      "approve(address,uint256)": {
        "details": "See {IERC721-approve}."
      },
      "balanceOf(address)": {
        "details": "See {IERC721-balanceOf}."
      },
      "getApproved(uint256)": {
        "details": "See {IERC721-getApproved}."
      },
      "isApprovedForAll(address,address)": {
        "details": "See {IERC721-isApprovedForAll}."
      },
      "name()": {
        "details": "See {IERC721Metadata-name}."
      },
      "ownerOf(uint256)": {
        "details": "See {IERC721-ownerOf}."
      },
      "safeTransferFrom(address,address,uint256)": {
        "details": "See {IERC721-safeTransferFrom}."
      },
      "safeTransferFrom(address,address,uint256,bytes)": {
        "details": "See {IERC721-safeTransferFrom}."
      },
      "setApprovalForAll(address,bool)": {
        "details": "See {IERC721-setApprovalForAll}."
      },
      "supportsInterface(bytes4)": {
        "details": "See {IERC165-supportsInterface}"
      },
      "symbol()": {
        "details": "See {IERC721Metadata-symbol}."
      },
      "tokenURI(uint256)": {
        "details": "See {IERC721Metadata-tokenURI}."
      },
      "transferFrom(address,address,uint256)": {
        "details": "See {IERC721-transferFrom}."
      }
    },
    "version": 1
  },
  "userdoc": {
    "kind": "user",
    "methods": {},
    "version": 1
  }
}